:020000040800F2
:1000000058070020CD010008052A000859220008E1
:10001000012A00086D0B0008B12B00080000000049
:10002000000000000000000000000000992B000804
:100030000510000800000000092A00089D2B000898
:10004000E7010008E7010008E7010008E7010008F0
:10005000E7010008E7010008E7010008E7010008E0
:10006000E7010008E7010008E7010008E7010008D0
:10007000E7010008E7010008E7010008E7010008C0
:10008000E7010008E7010008E7010008E7010008B0
:10009000E7010008E7010008E7010008E7010008A0
:1000A000E7010008E7010008E7010008E701000890
:1000B000A52B0008E7010008E7010008E701000898
:1000C000E7010008E7010008E7010008E701000870
:1000D000E7010008E7010008E7010008E701000860
:1000E000E7010008E7010008E701000800F002F856
:1000F00000F05DF814A696E8000CB244B344DA456B
:1001000001D100F054F8BAE80F000FA696E83000CD
:10011000A5EB040504EB0607AAEB0704A7F101070A
:100120004FEA15154FEA3414A4F10104AC4201D38F
:1001300000F03DF813F0010F18BFFB1A43F0010364
:1001400000F001F8DBE71847703E0000903E000029
:10015000103A24BF78C878C1FAD8520724BF30C8F3
:1001600030C144BF04680C60704700007047000055
:100170000023002400250026103A28BF78C1FBD8B0
:10018000520728BF30C148BF0B607047662903F093
:10019000B186002070471FB500F072FB04000020FC
:1001A000002103F047FAE0601FBD10B510BD00F05C
:1001B00067FC1146FFF7EFFF02F04EFD00F085FCF3
:1001C00003B4FFF7F2FF03BC00F0C8FC0948804706
:1001D00009480047FEE7FEE7FEE7FEE7FEE7FEE729
:1001E000FEE7FEE7FEE7FEE704480549054A064B41
:1001F00070470000A12B0008ED0000085801002006
:100200005807002058030020580300200FB41CB5E5
:10021000074B06AA7B4469460090059800F017FB3F
:100220000020694600F026FB1CBC5DF814FB0000B2
:100230005D0600002DE9F0474FF0000A89460446AC
:10024000C0F820A02046E1688847002876D02528FD
:1002500006D0D4E901219047206A401C2062F1E7D2
:10026000E168204600268847C4F81CA00546002700
:10027000C4F818A02A2D09D0284603F0D3F938B3C2
:1002800004EB8708303DC8F8185019E059F8041BF2
:10029000204604EB87029161E1688847012F0546FB
:1002A00018D1E069002820DA26F020061DE0D8F8F1
:1002B000180000EB800005EB40003038C8F818004B
:1002C0002046E1688847054603F0ACF90028EED1E6
:1002D000012F0AD02E2D08D12046E16888477F1CC7
:1002E0000546022F46F02006C4DBA069002803DA89
:1002F000404246F00106A061F00701D026F010064A
:100300006C2D0AD0682D08D04C2D39D06A2D35D0EF
:10031000742D35D07A2D33D016E0E1682F46204673
:100320008847B84205460AD16C2F27D04FF4806029
:10033000E168064320468847054605E027E06C2F24
:100340001AD04FF4807006430DB3A5F1410019286F
:1003500002D8203546F400664A46294620462660E3
:100360004E46FFF713FF80B101280BD0F61D26F093
:10037000070000F1080965E74020E4E78020D7E79F
:100380000020D5E706F104095CE7284661E7206A0A
:10039000BDE8F08710B5431C02E010F8011B71B1F5
:1003A0008107FAD14FF0013202C88C1A8C4314EA4B
:1003B000C211F9D0C01A0A0603D0C01E10BDC01A5F
:1003C00010BD0A0401D0801E10BD0902FCD0401EE1
:1003D00010BD4FF0000200B51346944696462039F2
:1003E00022BFA0E80C50A0E80C50B1F12001BFF4EE
:1003F000F7AF090728BFA0E80C5048BF0CC05DF854
:1004000004EB890028BF40F8042B08BF704748BFA1
:1004100020F8022B11F0804F18BF00F8012B704715
:100420007047704770472DE9FF4F0C461E464FF04E
:10043000FF378BB0D2E90001DDF860800A908A4670
:10044000C1F30A5505B93D46002108464FF00000AA
:10045000BAF1000F00F4400005DA00EB80004FF421
:10046000400101EA50004FEA9059B9F1010F00DD57
:10047000B9460A9850EA4A000ED044F61050A5F248
:10048000FF3545432F14B8F1000F1ED07542291EC9
:100490001EDDC9F100021CE0B8F1010F4FF00000B1
:1004A00001D0302103E0F24305E02154401CB0426A
:1004B000FBDB30460022002121540B99C1F8088053
:1004C000C1E900200FB0BDE8F08FBD1B6D1CDEE759
:1004D0004A4600DA694206A800F05CFA06AB93E8E7
:1004E000070003AB83E8070050460A9902F0BEFC00
:1004F0008DE80700A0F500501F3800900398002DEC
:100500000ADD42F21F014A460844002303A9039072
:10051000684602F027FF09E0A0F500504A461F3860
:10052000002303A90390684602F031FF8DE807001D
:100530000004000C03D04FF0FF30410800E01046EB
:10054000B8F1000F03D00022009215461EE0751E80
:1005500005D400F099F9303262556D1EF9D5B346D5
:100560000122084302D000227F1C04E020783028BA
:1005700001D100227F1E002A099784D01DE0112D91
:1005800007DA00F081F9303262556D1C50EA010241
:10059000F5D1084302D00098C8B10EE00021681ED2
:1005A00005E0235C625C63542254401E491C814276
:1005B000F7DBAB46A81B401E0990002004F80B0097
:1005C0000B98099AC0F80880C0E9002B7AE7112639
:1005D0004FF0000857E72DE9F04F88460446D21D3A
:1005E00022F0070191B0D1E90001CDE90A0103F041
:1005F00005F802460B98C00F01D02D2007E02068B7
:10060000810701D52B2002E0202101EAC000032A46
:10061000099001D0072A05DB03464146204600F039
:1006200079F90BE12078800601D5E06900E0062029
:10063000B8F1650F814606D0B8F1660F18D0B8F151
:10064000670F70D131E00020B9F1110F009001DB8C
:10065000112301E009F101030AAA01A90CA8FFF77F
:10066000E2FEDDE90C70002609F10105834647E052
:1006700001204B4600904FF000470AAA01A90CA8A0
:10068000FFF7D1FEDDE90DB00C995D46002610B9EB
:1006900009F101000D18B9EB050003D4C0F1FF36D4
:1006A00009F10105A5EB09002BE0B9F1010F01DA11
:1006B0004FF001090020B9F1110F0090484601DD0B
:1006C000112300E003460AAA01A90CA8FFF7ABFE1C
:1006D000DDE90C704D4600268346207800070AD4D9
:1006E000AB4500DA5D4601A8012D04DD411911F882
:1006F000011C302907D04F4502DA17F1040F04DA44
:10070000012082460FE06D1EEEE7002F02DCED1B9C
:100710003E4403E0781CA84200DD7D1CB81B00F1BC
:10072000010A4FF000472078000703D4AA4501DBF7
:100730004FF0FF3A0021B7F1004F0DF143088DF85B
:10074000431024D002202B23002F01DA7F422D23D7
:100750000A21021EA0F1010000DC5FB197FBF1FC51
:1007600097FBF1F201FB1C7C17460CF1300C08F8EA
:1007700001CDEEE7A8F1010003702188090501D53C
:10078000452100E06521A0F1010800F8011C09984D
:100790000FA9A1EB0807FF1D00B10120411901EBD2
:1007A000EA70A1693844081A401EA0612078C0068A
:1007B00002D42046AFF30080099828B1D4E9012182
:1007C0009047206A401C20622078C00622D520462F
:1007D000AFF300801EE0002E04DBB34502DD01A86C
:1007E000805D00E03020D4E901219047206A401C60
:1007F0002062761CAAF101005FEA000A0AD100F02B
:100800003FF8C0680168405CD4E901219047206A44
:10081000401C2062281EA5F10105DCDC07E0D4E9BC
:10082000012118F8010B9047206A401C2062381EF5
:10083000A7F10107F3DC2046AFF30080032011B0DD
:1008400041E6000001694A1C02610878704700B562
:100850008FB0CDE901310021059105497944CDE9F9
:10086000031011466846FFF7E5FC0FB000BD00001D
:10087000E5FFFFFF0A6802F8010B0A6070470000FD
:10088000004870473000002030B5B0F10A0271F125
:1008900000034FEA900E4EEA817EB0EB0E0061EB52
:1008A00091014FEA101E4EEA017E10EB0E0041EB63
:1008B00011114FEA102E4EEA016E10EB0E0041EBC3
:1008C00011214FEA104E4EEA014E10EB0E0041EBA3
:1008D0001141401841F100014FEAD00040EA417057
:1008E0004FEAD1014FEA810444EA907410EB80058D
:1008F00044EB01046D1944EB0404521BA3414FF077
:10090000000348BF0A3200D530BD401C41F1000150
:1009100030BD00002DE9F0411F4604460326016862
:10092000072A01F4006004DB08B116A505E016A54E
:1009300003E008B115A500E015A521F01000206026
:10094000A069C01EA0610FB1401EA0612046AFF398
:1009500000804FB1D4E9012138469047206A401CFD
:100960002062C01C206206E0206AFAE7D4E9012177
:1009700015F8010B9047761EF8D22046AFF30080A1
:10098000BDE8F0814E414E006E616E00494E46005A
:10099000696E66002DE9F047814616468AB03548F3
:1009A00078440DC88DE80D0032487844801C03ACB3
:1009B0000DC884E80D0041F69B300844372190FBB8
:1009C000F1F290FBF1F5A5F1800501FB12041B3C4F
:1009D00002D56442012000E00020DFF898A08046A4
:1009E0000027FA44AAF1BE0A0EE0E0070AD0324618
:1009F000684607EB470101230AEB810102F0C7FCBF
:100A00008DE8070064107F1C002CEED1194F7F4445
:100A1000AE3F19E0E80715D007EB04100DF1180AF6
:100A200090E80E008AE80E00C068F04201D19819E3
:100A300008903246012306A903A802F0A8FC03ABE4
:100A400083E807006D10641C002DE3D14FF0010313
:100A500032466946B8F1000F03A802D002F082FCCA
:100A600001E002F094FCC9E90001C9F808200AB0CD
:100A7000BDE8F087D0350000004870471000002026
:100A80007546FFF7F9FFAE4605006946534620F06C
:100A90000700854618B020B5FFF7A6FBBDE820404B
:100AA0004FF000064FF000074FF000084FF0000B2A
:100AB000AC46ACE8C009ACE8C009ACE8C009ACE899
:100AC000C00921F007018D46704710B50446AFF309
:100AD00000802046BDE81040FFF772BB4FF0013C9C
:100AE00050F8042B51F8043B9A4221D1A2EB0C039D
:100AF000934313EACC1317D150F8042B51F8043B5D
:100B00009A4215D1A2EB0C03934313EACC130BD1F9
:100B100050F8042B51F8043B9A4209D1A2EB0C0384
:100B2000934313EACC13DBD04FF00000704700BFB3
:100B3000D01A01BAB1FA81F101F0180122FA01F0DC
:100B4000CB40DBB2C0B2C01AC1F120012CFA01F3D4
:100B5000D11A914311EAC311E6D170470149182017
:100B6000ABBEFEE72600020070470000FEE7000073
:100B7000B0B584B0102040F6004400900020C4F2CC
:100B80000104CDE90100032003906946204600F0EE
:100B900055FA2046102100F059FB012814D10020FD
:100BA0000546012002F006F82046102100F04EFB19
:100BB000012803D1C72D05F10100F1D3C62D03D9BA
:100BC000012004B0B0BD00BF2046102100F03EFB64
:100BD000012803D1002004B0B0BD00BF002000BF39
:100BE0000546012001F0E6FF2046102100F02EFB13
:100BF000012803D0EF2D05F10100F1D30020EE2DE7
:100C000088BF012004B0B0BD2DE9F04184B040F6AA
:100C10000044EFF3108072B6C4F201044FF01008E4
:100C200001270026032569462046CDF8008001975C
:100C30000296039500F002FA20461021002200F0EF
:100C40000BFB40F2EE2001F0B5FF204610210122FF
:100C500000F002FB0F2001F0ADFFFFF789FFCC2071
:100C600000F0DAF8442000F0D7F869462046CDE9D4
:100C70000087CDE9026500F0E1F92046102100224D
:100C800000F0EAFA40F2EE2001F094FF2046102135
:100C9000012200F0E1FA0F2001F08CFFFFF768FF5E
:100CA000CC2000F0B9F8BE2000F0B6F800F06AF8E9
:100CB000054600F067F80446072888BF4FF0FF3666
:100CC00085EA060084EA0601C0B240EA012000B2CB
:100CD00062B602F0F8FE0023C3F6E473002202F0CD
:100CE0001DFF02F0C1FE072C88BF404200B204B0D5
:100CF000BDE8F0812DE9F04186B0002541F21800F1
:100D0000CDE90455CDE90255C4F20200016840F670
:100D1000004441F0080101600068C4F2010400F0E1
:100D20000800019001982046102101224FF0100880
:100D3000012700F091FA032602A92046CDE9028797
:100D40000495059600F07AF902A92046CDE90287BC
:100D5000CDE9045600F072F920461021002200F07F
:100D60007BFA40F2EE2001F025FF204610210122FF
:100D700000F072FA0F2001F01DFFFFF7F9FE06B038
:100D8000BDE8F0812DE9F04F85B040F60044C4F293
:100D9000010400274FF010094FF0030A0DF1040B76
:100DA00000260125012002A981E881042046594638
:100DB000CDF8049000F042F920461021002200F006
:100DC0004BFA022001F0F6FE20461021012200F02D
:100DD00043FA20465946CDE90197CDE9037A00F060
:100DE0002DF90C2001F0E6FE2046102100F02EFA2D
:100DF0000138B0FA80F04FEA5018322001F0DAFEE4
:100E0000C6F3460040EAC816082D05F10105C9D30E
:100E1000304605B0BDE8F08F2DE9F04784B00746B5
:100E20004FFA80FA1020009001200190002040F637
:100E3000004402900320C4F2010403906946204656
:100E400000F0FCF820461021002207F0010500F018
:100E500003FA002D4FF002004FF03C054FF002095D
:100E600008BF3C204FF03C0808BF022501F0A2FE5D
:100E700020461021012200F0EFF9284601F09AFEE9
:100E800017F002004FF002054FF03C0620464FF0ED
:100E900010014FF0000208BF3C2508BF022600F0F9
:100EA000DBF9284601F086FE20461021012200F0E1
:100EB000D3F9304601F07EFE17F004004FF0020532
:100EC0004FF03C0620464FF010014FF0000208BFE3
:100ED0003C2508BF022600F0BFF9284601F06AFE53
:100EE00020461021012200F0B7F9304601F062FEE1
:100EF00017F008004FF002054FF03C0620464FF077
:100F000010014FF0000208BF3C2508BF022600F088
:100F1000A3F9284601F04EFE20461021012200F0E0
:100F20009BF9304601F046FE17F010004FF0020525
:100F30004FF03C0620464FF010014FF0000208BF72
:100F40003C2508BF022600F087F9284601F032FE52
:100F500020461021012200F07FF9304601F02AFEE0
:100F600017F020004FF002054FF03C0620464FF0EE
:100F700010014FF0000208BF3C2508BF022600F018
:100F80006BF9284601F016FE20461021012200F0E0
:100F900063F9304601F00EFE17F040004FF00205F5
:100FA0004FF03C0620464FF010014FF0000208BF02
:100FB0003C2508BF022600F04FF9284601F0FAFD53
:100FC00020461021012200F047F9304601F0F2FDE1
:100FD000204610210022BAF1FF3FC4BF4FF00208A3
:100FE0004FF03C0900F038F9484601F0E3FD204697
:100FF0001021012200F030F9404601F0DBFD04B081
:10100000BDE8F08770470000EFF3108072B600BFB4
:10101000FEE70000B0B5044600F024F9054640F2B2
:101020000000C2F200000078611C18BF044400BF39
:1010300000F018F9401BA042FAD3B0BD2DE9F04FE3
:1010400082B00E68002E00F0FD8041F20042C4F232
:101050000102042340F2004E904208BF03234FF6E2
:10106000FF7CC4F2010E009300240123C1F2100C96
:101070004FF0000A4FF000094BE000BF41F20002C0
:10108000C4F20102009F904208BF022704F00C0343
:101090000F229A402BEA020207FA03F34FEA9A055D
:1010A0001A4346F825204E6840F20C45F202DEF85D
:1010B000082054BF22EA080242EA0802C4F20105ED
:1010C000CEF808202A68B30254BF22EA080242EA96
:1010D00008022A60B303DEF8042054BF22EA0802A3
:1010E00042EA0802F303CEF80420DEF800204FF0B5
:1010F000010354BF22EA080242EA0802CEF80020A7
:101100000E680AF1010A36FA0AF204F1040400F04A
:10111000998003FA0AFB16EA0B08F1D04E6866457F
:1011200012DC122E56D8DFE806F0350B4D49555526
:10113000555555555555555555555545510000BFB3
:10114000D1F80C9046E000BF4FF6FF72C1F22102C9
:1011500096420FDC0022C1F2110296421AD0002200
:10116000C1F21202964215D00022C1F2210296422B
:1011700010D02FE00022C1F2220296420AD00022B3
:10118000C1F23102964205D00022C1F232029642EB
:1011900020D100BF8A684AB1012A14BFC0F814B038
:1011A000C0F810B04FF0080914E000BF4FF0040978
:1011B00010E000BFCA6802F104090BE04FF000091B
:1011C00008E000BFCA6802F1080903E0CA6802F13A
:1011D0000C0900BF02462646B8F5807F24BF0432C2
:1011E000203E17680F25B54027EA050509FA06F6DF
:1011F00035431560CA79D2067FF582AF41F21803F4
:10120000C4F202031A68AEF57E7642F001021A605B
:101210001A6802F001020192019A2AF0030256F8BC
:1012200002B040F60002C4F20102904208D040F63B
:101230000042C4F2010290427FF420AF012725E76B
:10124000002723E702B0BDE8F08F00008068084067
:1012500018BF012070470000002A08BF090401617F
:101260007047000040F25410C2F20000006870475E
:1012700040F2000040F25411C2F20000C2F200013C
:1012800000780A68104408607047000080B542F298
:101290000000C4F20200016841F010010160032067
:1012A00000F08CF80F2000F005F800F027F800207F
:1012B00080BD000070B540F20006C2F2000640F2A8
:1012C00008013278C2F200014FF47A730968B3FB67
:1012D000F2F20446B1FBF2F1084600F085FB0F2C58
:1012E0004FF0010508D838B94FF0FF3021460022F1
:1012F000002500F037F87460284670BD82B041F2D6
:101300001800C4F202000168022241F001010160EC
:10131000016801F0010101910199416841F080519A
:101320004160406800F08050009000980420C4F2B2
:101330000100016862F31A61016002B070470000A9
:10134000002848BF704700F01F01012202FA01F196
:101350001C2202EAD0004EF20012CEF200028150AE
:101360007047000010B54EF60C5CCEF2000CDCF8B5
:101370000030C3F3022E8EF00704042C28BF04248F
:10138000BEF103034FF0FF3E0EFA04F438BF002312
:10139000A14399400EFA03F39A43114300F00F0260
:1013A00000F160430901043A03F5644362440028F4
:1013B00048BF02F10C03197010BD00004EF60C512D
:1013C000CEF200010A684FF6FF031A4060F30A22CA
:1013D00042F0806040F0FD7008607047002804BF54
:1013E000012070472DE9F04381B042F20008C4F2B9
:1013F00002080446D8F800000D4600F007008142BC
:101400000CD9D8F8000020F007002843C8F80000E5
:10141000D8F8000000F00700A8426CD1206841F223
:1014200004098107C4F2020917D5410705D5D9F887
:10143000001041F4E061C9F80010010705D5D9F8A2
:10144000001041F46051C9F80010D9F80010A268EA
:1014500021F0F0011143C9F80010C00742D1D8F8BB
:10146000000000F0070085420CD2D8F8000020F000
:1014700007002843C8F80000D8F8000000F0070073
:10148000A84238D12068410707D5D9F80010E26892
:1014900021F4E0611143C9F80010000708D5D9F81C
:1014A0000000216920F4605040EAC100C9F8000042
:1014B000D9F8002002F00C00082841F20020C0F208
:1014C0007A004DD143F6A673C2F38341C0F6000300
:1014D000595CD20338D440F60010C0F23D004843B6
:1014E0003EE000BF606859F8041C022808D00128BB
:1014F00026D1890306D4012001B0BDE8F08300BFE6
:101500008901F8D5D9F8001021F003010843C9F882
:101510000000FFF7A7FE064641F28837D9F8000021
:10152000616800F00C00B0EB810F98D0FFF79AFED5
:10153000801BB842F2D9032001B0BDE8F08300BFA0
:101540008907D8D5DEE700BFD9F8002043F6A47399
:10155000C2F34042C0F600039A5C4843B0FBF2F08D
:10156000D9F8001043F68C72C1F30311C0F60002E3
:10157000515C40F2080220FA01F140F20400C2F28C
:1015800000000068C2F200021160FFF793FE002025
:1015900001B0BDE8F083000040F2080041F2040110
:1015A000C2F20000C4F202010068096843F69C72AE
:1015B000C1F30221C0F60002515CC8407047000030
:1015C00040F2080041F20401C2F20000C4F202013C
:1015D0000068096843F69C72C1F3C221C0F600029C
:1015E000515CC84070470000002804BF01207047CC
:1015F0002DE9F04182B00446007841F20006C007B0
:10160000C4F202060CD0706800F00C00042840F010
:1016100081803068800303D56068002800F046812F
:10162000207880071BD5706810F00C0F09D0706807
:1016300000F00C00082840F087807068C00300F1BB
:1016400083803068800703D52069012840F02E810F
:101650003068616920F0F80040EAC100306020780D
:10166000000713D4207840072CD4E569002D00F042
:101670001881706800F00C00082840F0A780012D48
:1016800040F00481012002B0BDE8F081A06900288B
:1016900000F084800020C4F242200121C0F88014B0
:1016A000FFF7E0FD054600BF706A800700F1B280D9
:1016B000FFF7D8FD401B0228F6D9032002B0BDE891
:1016C000F08100BFF0695FEAC00808D4F06940F01B
:1016D0008050F061F06900F080500090009847F26F
:1016E0000007C4F200073868C00549D4386840F4E0
:1016F00080703860FFF7B6FD054600BF3868C0054A
:101700003ED4FFF7AFFD401B6428F7D9032002B099
:10171000BDE8F081706800F00C00082803D1706803
:10172000C0033FF576AF61683068002900F00C8196
:10173000B1F5A02F00F00081B1F5803F40F01A8193
:1017400040F480301CE100BF2069002840F2000016
:10175000C4F2422000F0888001210160FFF782FD81
:10176000054600BF306880073FF572AFFFF77AFD8E
:10177000401B0228F6D9032002B0BDE8F08100BF6B
:10178000E168306A002900F09D80052900F0928010
:10179000012940F0AF8040F00100B1E00020C4F228
:1017A00042200021C0F88014FFF75CFD054600BF11
:1017B000706A80077FF556AFFFF754FD401B022883
:1017C000F6D9032002B0BDE8F08100BF0027C4F2C3
:1017D000422700203866FFF745FD022D05460DD152
:1017E0003068800140F1DE80FFF73CFD401B02289D
:1017F0004FF00300F4D902B0BDE8F08130688001F9
:101800004FD5FFF72FFD401B02284FF00300F5D9FD
:10181000F1E700BF40F20800C2F20000006844F6A1
:10182000D351C1F26201A0FB0101480A019000BF3F
:1018300000BF0198411E002801913FF413AF00BF83
:101840000198411E002801913FF40CAF00BF0198A0
:10185000411E002801913FF405AF00BF0198411ED1
:1018600000280191E4D1FDE600210160FFF7FAFCB8
:10187000054600BF306880077FF5F1AEFFF7F2FC48
:10188000401B02284FF00300F4D9B4E77068216AC6
:1018900000F480328A4209D1616A00F470108842F3
:1018A00004D1002002B0BDE8F08100BF012002B0E9
:1018B000BDE8F08140F004003062306A40F0010081
:1018C0001EE000BF20F001003062306A20F004000A
:1018D0003062FFF7C7FC054641F28837306A80075F
:1018E00020D5FFF7BFFC401BB8424FF00300F5D9ED
:1018F00081E700BF20F001003062306A20F0040070
:101900003062FFF7AFFC054641F28837306A800746
:1019100008D4FFF7A7FC401BB842F7D9032002B058
:10192000BDE8F081B8F1000F3FF59FAEF06920F0FF
:101930008050F06199E600BF40F48020306030684C
:1019400040F480301CE000BF20F48030306030680C
:1019500020F480203060FFF785FC05463068800366
:101960007FF55EAEFFF77EFC401B64284FF003005E
:10197000F4D940E720F480303060306820F48020D3
:101980003060FFF76FFC0546306880033FF548AED6
:10199000FFF768FC401B6428F6D9032002B0BDE8BD
:1019A000F08100BF206AB0F5803F05D17168A26860
:1019B00021F40031114371607168626A21F474117D
:1019C00011430843706001203866FFF74BFC044662
:1019D000306880013FF565AFFFF744FC001B02282B
:1019E0004FF00300F4D906E7411E0020B0EB116F61
:1019F0001CBF012070474EF21002CEF2000251606F
:101A00004EF62351CEF20001F0230B7007219060B7
:101A100011607047704700007047000090F83C204C
:101A2000012A4FF0020236D010B580F83D2002683E
:101A3000D2F804E0D2F808C00C682EF070032343FB
:101A400040F2FF74C4F20004A24253600ADCB2F117
:101A5000804F13D040F20043C4F200039A420DD0ED
:101A600011E000BF42F60043C4F201039A4205D0E0
:101A700040F60003C4F200039A4204D149682CF0F6
:101A80008003194391600121002280F83D1080F805
:101A90003C20BDE81040104670470000002804BFFD
:101AA0000120704710B590F83D1031B9002180F841
:101AB0003C10044600F070F82046022180F83D10EA
:101AC000016840F2FF740B68C4F2000442F6004C57
:101AD000A142C4F2010C15DCB1F1804F1AD040F2E2
:101AE0000042C4F20002914214D0A14218DCB1F1CC
:101AF000804F1DD040F20042C4F20002914217D044
:101B00001AE000BF614505D040F60002C4F20002B1
:101B10009142EAD1826823F070031343A142E6DDCB
:101B2000614505D040F60002C4F20002914203D1A3
:101B3000026923F440731343846923F08002D0F8D0
:101B400004E0C368224361450A60CB62C1F828E023
:101B500002D14269CCF8302001224A610B69DB07CF
:101B600003D00B6923F001030B6180F8462080F855
:101B70003E2080F83F2080F8402080F8412080F807
:101B8000422080F8432080F8442080F8452080F8E7
:101B90003D20002010BD00000068B0F1804F18BF4C
:101BA000704780B582B041F21C00C4F202000168A7
:101BB000002241F0010101600068002100F00100F5
:101BC000019001981C20FFF7CDFB1C2002B0BDE85E
:101BD0008040FFF7B5BB000090F83D1001291CBF05
:101BE00001207047022180F83D10006840F2FF722A
:101BF000C168C4F20002904241F00101C16009DCF9
:101C0000B0F1804F12D040F20041C4F2000188428E
:101C10000CD012E042F60041C4F20101884205D026
:101C200040F60001C4F20001884206D1816801F04B
:101C30000701062904BF00207047016841F0010137
:101C4000016000207047000090F83C20012A4FF00E
:101C500002026CD080B580F83D20D0F800C04FF66D
:101C60007772DCF8083023EA0202CCF808200B680F
:101C70004F2B29DC1F2B45DD202B46D0302B44D0A9
:101C8000402B40F0AF80D1F804E0C968DCF8203088
:101C9000DCF8202022F00102CCF82020DCF818200B
:101CA00022F0F00242EA011123F00A0242EA0E0297
:101CB000CCF81810CCF82020DCF8081041F04701CF
:101CC00021F0300128E000BF6F2B33DDB3F5005F5A
:101CD00074D0B3F5805F21D0702B40F08380D1E9C0
:101CE00001E3C968DCF8082043EA0E0322F47F42CE
:101CF00043EA01211143CCF80810DCF8081041F048
:101D0000770109E00BB1102B6CD1DCF8081021F041
:101D10007001194341F00701CCF80810002201219D
:101D200080F83D10002180F83C10BDE8804010464E
:101D3000704700BF502B21D0602B53D1D1F804E065
:101D4000C968DCF82030DCF8202022F01002CCF842
:101D50002020DCF8182022F4704242EA013123F0FE
:101D6000A00242EA0E12CCF81810CCF82020DCF8C1
:101D7000081041F0670121F01001CDE7D1F804E02F
:101D8000C968DCF82030DCF8202022F00102CCF811
:101D90002020DCF8182022F0F00242EA011123F0A2
:101DA0000A0242EA0E02CCF81810CCF82020DCF827
:101DB000081041F0570121F02001ADE7D1E901E31E
:101DC000C968DCF8082043EA0E0322F47F4243EAA4
:101DD00001211143CCF80810DCF8081041F48041CF
:101DE0009AE700BF01229AE77047000070B50446E9
:101DF0000068C5680669B10716D515F0020113D051
:101E00006FF002010161012121778069800703D011
:101E10002046FFF7E9FF05E0204600F08FF8204656
:101E200000F08EF800202077700719D515F0040017
:101E300016D020686FF004010161022121778069CA
:101E400010F4407F04D02046FFF7CEFF06E000BF2D
:101E5000204600F073F8204600F072F8002020774A
:101E6000300717D515F0080014D020686FF008016E
:101E7000016104212177C069800703D02046FFF764
:101E8000B3FF05E0204600F059F8204600F058F86E
:101E900000202077F00619D515F0100016D0206824
:101EA0006FF01001016108212177C06910F4407FB3
:101EB00004D02046FFF798FF06E000BF204600F060
:101EC0003DF8204600F03CF800202077F00718BFCE
:101ED00015F0010002D1300609D412E020686FF03D
:101EE00001010161204600F02DF8300609D515F0FA
:101EF000800006D020686FF0800101612046FFF766
:101F000089FD700609D515F0400006D020686FF0F5
:101F100040010161204600F021F8B00658BF70BDB5
:101F200015F0200008D021686FF0200220460A61D9
:101F3000BDE87040FFF770BD70BD00007047000045
:101F4000704700000068B0F1804F18BF704740F242
:101F50007000C2F20000012101707047704700005C
:101F6000002804BF0120704710B5044690F84100D6
:101F700028B9002084F84000204600F063F82420AF
:101F800084F841002068D4E90212C36823F40053A6
:101F9000C360036923F440531A430261D4E9042364
:101FA0001143C268194341F20C639A431143C16063
:101FB0004169A26921F44071114343F60002C4F261
:101FC00001029042416103D0FFF7E6FA02E000BF50
:101FD000FFF7F6FAD4E90023192148439900B0FB32
:101FE000F1F048F21F5CC5F2EB1CA0FB0C314FF680
:101FF0009C734909C0F6FF7301FB0300322303EB16
:102000000010A0FB0C03F02000EA531000EB0110BD
:10201000C3F34311084490601069202120F49040DC
:102020001061506920F02A005061D06840F40050DF
:10203000D0600020606484F8411084F8421060632E
:1020400010BD000070B586B040F60004C4F2010473
:10205000006804F54051002688420596CDE90366E4
:10206000029601D006B070BD41F21800C4F2020021
:10207000016802AD41F480410160016801F48041D2
:1020800001910199016841F004010160006829464D
:1020900000F00400019001984FF4007002900220BB
:1020A0000390032005902046FEF7C8FF4FF48060A0
:1020B000CDE90206204629460496FEF7BFFF06B08A
:1020C00070BD00002DE9F04381B0044690F8410056
:1020D000202809D100294FF0010018BF002A07D19C
:1020E00001B0BDE8F08300BF022001B0BDE8F0837D
:1020F0000020606421201D460E4684F841001746EA
:10210000FFF7B0F8A784E784A1688146B1F5805F46
:1021100002D1206900285DD037460020E28C21687A
:10212000002A5DD06A1C24D0002D4AD0804600BF12
:102130000868000608D4FFF795F8A0EB0900A8424C
:102140007AD82168C868F3E717B117F8010B04E0E3
:1021500038F8020B00276FF35F204860E08C0138ED
:10216000E084E08C0028E3D13AE000BF0A68120660
:1021700009D40A68120606D40A6812065CBF0A6807
:102180005FEA0262F2D51FB117F8012B05E000BF2C
:1021900030F8022B00276FF35F224A60E28C013A8D
:1021A000E284E28C002AE4D11AE000BF30F8022B6E
:1021B00000276FF35F224A60E28C013AE284E28CEE
:1021C00072B10A68120635D5002FEFD017F8012B2F
:1021D000F1E700BF00273046E28C2168002AA1D138
:1021E000086840061ED42DB3681C14D10868400648
:1021F0002AD40868400627D40868400624D4086812
:1022000040064FF00000F1D50DE000BF2068C16826
:102210000068400618D4FFF725F8A0EB0900A84293
:10222000F4D909E00020202184F8411001B0BDE874
:10223000F08300BFFFF716F80320202184F8411037
:1022400001B0BDE8F08300BF0020202184F84110D8
:1022500001B0BDE8F0830000FEE7000070B584B077
:102260000020CDE90100802040F6004400900320CA
:10227000C4F20104039069462046FEF7DFFE2046C3
:1022800040210022FEF7E8FF052000F093FC2046E5
:1022900040210122FEF7E0FF20468021FEF7D6FF15
:1022A000054600284FF0050018BF012500F082FC0C
:1022B000204640210022FEF7CFFF052000F07AFCE7
:1022C000204640210122FEF7C7FF20468021FEF76D
:1022D000BDFF002818BF012040EA4506052000F098
:1022E00069FC204640210022FEF7B6FF052000F0E1
:1022F00061FC204640210122FEF7AEFF20468021EE
:10230000FEF7A4FF054600284FF0050018BF012581
:1023100000F050FC204640210022FEF79DFF0520E2
:1023200000F048FC204640210122FEF795FFB00056
:1023300040EA450520468021FEF788FF002818BFA7
:1023400001202E18052000F035FC204640210022F7
:10235000FEF782FF052000F02DFC204640210122DF
:10236000FEF77AFF20468021FEF770FF0546002821
:102370004FF0050018BF012500F01CFC204640214D
:102380000022FEF769FF052000F014FC20464021E2
:102390000122FEF761FFB00040EA4505204680219A
:1023A000FEF754FF002818BF01202E18052000F06A
:1023B00001FC204640210022FEF74EFF052000F0E0
:1023C000F9FB204640210122FEF746FF20468021EE
:1023D000FEF73CFF054600284FF0050018BF012519
:1023E00000F0E8FB204640210022FEF735FF0520E3
:1023F00000F0E0FB204640210122FEF72DFFB00057
:1024000040EA450520468021FEF720FF002818BF3E
:1024100001202C18052000F0CDFBE0B204B070BD07
:10242000B0B584B0054600200290112001908020B4
:1024300040F6004400900320C4F201040390694672
:102440002046FEF7FBFD204640210022FEF704FF58
:10245000EA0920468021FEF7FFFE052000F0AAFBD6
:10246000204640210122FEF7F7FE052000F0A2FBE6
:10247000204640210022FEF7EFFE052000F09AFBE7
:10248000C5F3801220468021FEF7E6FE052000F00D
:1024900091FB204640210122FEF7DEFE052000F0E0
:1024A00089FB204640210022FEF7D6FE052000F0E1
:1024B00081FBC5F3401220468021FEF7CDFE0520AA
:1024C00000F078FB204640210122FEF7C5FE0520E2
:1024D00000F070FB204640210022FEF7BDFE0520E3
:1024E00000F068FBC5F3001220468021FEF7B4FE21
:1024F000052000F05FFB204640210122FEF7ACFEE4
:10250000052000F057FB204640210022FEF7A4FEE4
:10251000052000F04FFBC5F3C00220468021FEF7E6
:102520009BFE052000F046FB204640210122FEF7DD
:1025300093FE052000F03EFB204640210022FEF7DE
:102540008BFE052000F036FBC5F38002204680217B
:10255000FEF782FE052000F02DFB204640210122DF
:10256000FEF77AFE052000F025FB204640210022E0
:10257000FEF772FE052000F01DFBC5F34002204669
:102580008021FEF769FE052000F014FB2046402163
:102590000122FEF761FE052000F00CFB20464021E1
:1025A0000022FEF759FE052000F004FB05F00102B1
:1025B00020468021FEF750FE052000F0FBFA204661
:1025C00040210122FEF748FE052000F0F3FA2046E4
:1025D00040210022FEF740FE052000F0EBFA04B097
:1025E000B0BD0000B0B584B0002040F60044CDE995
:1025F00001008020C4F2010400900320039069468A
:102600002046FEF71BFD052000F0D4FA20464021AD
:102610000122FEF721FE052000F0CCFA20468021A1
:10262000FEF714FE80B30135E8B2C928F6D30020C6
:1026300002901120019080200090032003906946B1
:102640002046FEF7FBFC204640210022FEF704FE58
:10265000204680210022FEF7FFFD052000F0AAFAA7
:102660002046402101220125FEF7F6FD052000F05D
:10267000A1FA204680210122FEF7EEFD052000F0A0
:1026800099FA284604B0B0BD20464021002200251A
:10269000FEF7E2FD284604B0B0BD00002DE9F0478A
:1026A00084B040F60044C4F201040D4606464FF0E3
:1026B00000084FF011094FF0800A032769462046B1
:1026C000CDF80880CDF80490CDF800A00397FEF770
:1026D000B5FC204680210122FEF7BEFD20464021A8
:1026E0000122FEF7B9FD052000F064FA20468021A2
:1026F0000022FEF7B1FD052000F05CFA20464021E3
:102700000022FEF7A9FD7000C0B2FFF789FEFFF7B7
:1027100069FF2846FFF784FE69462046CDE900A9F7
:10272000CDE90287FEF78AFC204640210022FEF711
:1027300093FD204680210022FEF78EFD052000F04B
:1027400039FA204640210122FEF786FD052000F0DF
:1027500031FA204680210122FEF77EFD052000F09F
:1027600029FA04B0BDE8F08710B541F20004012851
:10277000C4F2010428D0022814D0032818BF10BDC9
:1027800020464FF400510022FEF766FDC820FEF7F8
:1027900041FC20464FF400510122FEF75DFDC820A8
:1027A000FEF738FC20464FF400510022FEF754FD9E
:1027B000C820FEF72FFC20464FF400510122FEF7FF
:1027C0004BFDC820FEF726FC20464FF400510022A6
:1027D000FEF742FDC820FEF71DFC20464FF40051D5
:1027E0000122FEF739FDC820FEF714FC20464FF405
:1027F00000510022FEF730FDC820FEF70BFC2046FA
:102800004FF400510122FEF727FDC820FEF702FC1D
:1028100020464FF400510022FEF71EFDC820FEF7AF
:10282000F9FB20464FF400510122FEF715FDC820A8
:10283000FEF7F0FB40F6B830BDE81040FEF7EABB0B
:102840002DE9F04F85B0002441F21800CDE9034492
:10285000CDE90144C4F20200016840F6004841F0AD
:10286000100101600168C4F2010801F0100100913B
:102870000099016808F5806641F020010160016857
:10288000012201F020010091009901684FF40057E6
:1028900041F00401016001684FF0010901F00401F9
:1028A00000910099016841F00801016000684FF44F
:1028B000005100F00800009000983046FEF7CCFC74
:1028C000A8F5806528464FF4006100224FF4006AA5
:1028D000FEF7C2FC404610210022FEF7BDFC404638
:1028E000C0210122FEF7B8FCCDE9017901AF4FF01C
:1028F000020B304639460394CDF810B0FEF79EFB2C
:102900004FF48070CDE90104284639460394FEF760
:1029100095FB28463946CDE901A9CDE9034BFEF7E1
:102920008DFB1020CDE9010903940324404639466C
:102930000494FEF783FBC02001901120CDE9020929
:10294000404639460494FEF779FB05B0BDE8F08FA8
:1029500080B586B040F2C4000021C2F200004FF002
:10296000804241F61F434FF0C70C0591CDE903119A
:10297000CDE90011C0E90023C0E9021C01618161B9
:10298000FFF78CF8002818BFFEF73EFB4FF480508D
:10299000029040F2C400C2F2000002A9FFF754F90D
:1029A000002818BFFEF730FB40F2C400C2F200005E
:1029B0006946FFF733F8002818BFFEF725FB06B07D
:1029C00080BD000080B540F20C1043F60001C2F259
:1029D0000000C4F2010100234FF00C0C4FF4E1326F
:1029E00080E80E00C0E90333C0E905C3C361FFF707
:1029F000B7FA002808BF80BDBDE88040FEF704BBE1
:102A0000FEE70000FEE70000704700002DE9F04FF0
:102A100085B040F60044C4F201040E4605464FF06E
:102A200000094FF0110A4FF0800B4FF0030801A985
:102A30002046CDF80C90CDF808A0CDF804B0CDF824
:102A40001080FEF7FBFA204680210122FEF704FCED
:102A5000204640210122FEF7FFFB052000F0AAF8E6
:102A6000204680210022FEF7F7FB052000F0A2F8A7
:102A7000204640210022FEF7EFFB8920FFF7D0FC23
:102A8000FFF7B0FD022E2ED377426E1E01AD00BFC0
:102A90000020FFF7E3FB06F8010F2046402100224B
:102AA000FEF7DAFB20462946CDE901BACDE90398C5
:102AB000FEF7C4FA204680210022FEF7CDFB052058
:102AC00000F078F8204640210122FEF7C5FB0520E2
:102AD00000F070F8204640210022FEF7BDFB0137D0
:102AE000781CD5D1751C0020FFF7B8FB2870204654
:102AF00040210022FEF7B0FB01A92046CDE901BA32
:102B0000CDE90398FEF79AFA204680210122FEF7CC
:102B1000A3FB052000F04EF8204640210122FEF7DD
:102B20009BFB052000F046F8204640210022FEF7DE
:102B300093FB01A92046CDE901BACDE90398FEF740
:102B40007DFA204640210022FEF786FB20468021A8
:102B50000022FEF781FB052000F02CF820464021E2
:102B60000122FEF779FB052000F024F820468021A1
:102B70000122FEF771FB052000F01CF805B0BDE84E
:102B8000F08F000080B54420FD21FFF787FD0A206B
:102B9000BDE88040FEF73EBA70470000FEF768BB14
:102BA0007047000040F2C400C2F20000FFF71EB9F7
:102BB000FEE70000002808BF704710B54EF218016C
:102BC00041F6401CCEF20001C0F2010C03E000BF50
:102BD000B0EB0E003CD08646B0F5617F28BF4FF4C5
:102BE000617E0A680EEBCE035B4202EBC303002B4F
:102BF00016D400BF0C689442EADA9C42E8DB0C6809
:102C00009442E5DA9C42E3DB0C689442E0DA9C42B1
:102C1000DEDB0C689442DBDA9C42EBDAD8E700BFDB
:102C2000634400BF0C68944201DD9C42D0DD0C6817
:102C3000944201DD9C42CBDD0C68944201DD9C4254
:102C4000C6DD0C689442EDDD9C42EBDCC0E700BFC2
:102C5000BDE810407047000094B0FEF717FB002459
:102C60000120CDE90F44CDE90D440A900E904FF4B8
:102C7000E0104FF48031022513900AA8CDE90B141F
:102C8000CDE91151FEF7B0FC20B1EFF3108072B620
:102C9000FEE700BF0F20CDE905054FF48060CDE9C8
:102CA000080405A802210794FEF798FB20B1EFF372
:102CB000108072B6FEE700BFFFF7C2FDFFF782FE8D
:102CC000FFF746FEFEF716F838B100BF0120FFF708
:102CD0004BFDFEF70FF80028F8D140F2C400C2F215
:102CE0000000016841F200040022C4F201044A62BB
:102CF000FEF772FF40F27008C2F2000898F8000078
:102D00004FF6E07640F20C1908F10205C4F2EF0626
:102D100008F12007C2F20009012806D00120FEF7C1
:102D200079F998F800000128F8D120464FF40051B5
:102D30000022FEF791FAFFF725FF28460621FFF74C
:102D400065FEB8F80200AF2140BA484300F0D2FE59
:102D50000022334600F02CFD48F200030022CCF2A2
:102D6000460300F07DFCB8F80520C8E9040150BA1C
:102D70007D21484300F0BEFE0022334600F018FDDE
:102D800000230022CCF2180300F06AFCC8E9060117
:102D9000FDF73AFFA8F808000120FEF73BF9FDF720
:102DA00033FFA8F80A000120FEF734F9FDF72CFFE5
:102DB000A8F80C000120FEF72DF9B8F90800B8F9C1
:102DC0000A10B8F90C200844104400F07CFE0023DF
:102DD0000022C4F2080300F0EBFC00230022C4F23E
:102DE000240300F0E5FC82468B4638463221FDF78D
:102DF000F0FAD8E90601D8E904238DE8030438463F
:102E000013A1CDF80CB0FDF701FA3846FDF7C2FA70
:102E100082B2484639460523FFF754F960B9204687
:102E20004FF400510122FEF717FA002088F8000045
:102E300001287FF473AF78E7032814BF0320022032
:102E400088F80100C0B2FFF78FFC98F80100F9E79D
:102E50003C5450252E326C662C484D252E326C6623
:102E60002C5450252E326C663E0000005FEA400C68
:102E700008BF91F0000F4FEA8C234FEAC12243EACA
:102E800051514FEA1C5018BF00F5F0404FEA300096
:102E900018BF41F000415FEA6C5C00F02980BCF192
:102EA000FF3F08BF40F080407047130C06BF12047C
:102EB0004FF0100C4FF0000C130E04BF12020CF177
:102EC000080C130F04BF12010CF1040C930F04BF84
:102ED00092000CF1020CD30F04BF52000CF1010C54
:102EE00011464FF00002A0F11F00A0EB0C0070474C
:102EF00011F0004F08BF704731F000413FF4D5AFEB
:102F00000B0C06BF09044FF0100C4FF0000C0B0E19
:102F100004BF09020CF1080C0B0F04BF09010CF1EE
:102F2000040C8B0F04BF89000CF1020CCB0F04BF03
:102F300049000CF1010CCCF1200322FA03F341EA21
:102F4000030102FA0CF2A0EB0C0000F10100704743
:102F500023F07F4720F07F4C80EA030000F0004020
:102F6000ACEB070303F57C5303F1FF032DE9804924
:102F700009B44FEA144324EA03484FEA154B25EA03
:102F80000B4E0FF2042606EB13273E7803FB066771
:102F9000C7F5000707FB06F64FEAD64606F102061C
:102FA0004FEA543707FB066CCCF1005C4FEA1C4734
:102FB0002CEA074C0CFB06F507FB06F404EB154660
:102FC0004FEA961649085FEA320234BF00204FF0FC
:102FD00000404FEAD13706FB07FC4FEA1C4C0CFBC4
:102FE0000BF7D21B03FB0CF761EB07010CFB0EF791
:102FF000B0EB074072EB17420CFB08F734BFA2EBB3
:103000000742B2EB074261EB17414FEA0C444FEA2B
:10301000910706FB07FC4FEA1C4C0CFB0BF7B0EBCF
:10302000C74072EB573203FB0CF734BFA2EBC74229
:10303000B2EBC74261EB57310CFB0EF7B0EBC700A8
:1030400072EB57720CFB08F734BFA2EBC702B2EB6E
:10305000C70261EB57714FEA816141EA92114FEA71
:10306000826242EA90124FEA806004EBCC04039F34
:103070004FEAD13706FB07FC4FEA1C4C0CFB0BF761
:10308000D21B03FB0CF761EB07010CFB0EF7B0EB57
:10309000074072EB17420CFB08F734BFA2EB074264
:1030A000B2EB074261EB17414FEA8C5504EB9C24CD
:1030B0004FEA910706FB07FC4FEA1C4C0CFB0BF791
:1030C000B0EBC74072EB573203FB0CF734BFA2EBF7
:1030D000C742B2EBC74261EB57310CFB0EF7B0EBC6
:1030E000C70072EB57720CFB08F734BFA2EBC702A4
:1030F000B2EBC70261EB57714FEA816141EA92116D
:103100004FEA826242EA90124FEA806015EB4C254A
:1031100044F100044FEAD13706FB07FC4FEA1C4C90
:103120000CFB0BF7D21B03FB0CF761EB07010CFB4D
:103130000EF7B0EB074072EB17420CFB08F734BFF9
:10314000A2EB0742B2EB074261EB17414FEA813134
:1031500041EA92414FEA823242EA90424FEA80309D
:103160004FEA0C7615EB1C1544F1000448EA0343C2
:103170004EEA0B484FF0000EB2EB080C71EB030760
:1031800024BF624639464EEB0E0E4FF0000B00187E
:10319000524149414BEB0B0BB2EB080C71EB0307AF
:1031A0007BF1000B24BF624639464EEB0E0E4FF00A
:1031B000000B0018524149414BEB0B0BB2EB080CD2
:1031C00071EB03077BF1000B24BF624639464EEBDF
:1031D0000E0E51EA020718BF46F0010616EB0E76F6
:1031E00055F1000254F1000103D5BDE88901BDE8A5
:1031F0000088BDE88901BDE80048B619524141EB9D
:103200000101A3F10103704780807F7E7D7C7B7A82
:103210007978777676757473727171706F6E6E6D82
:103220006C6C6B6A6A696868676666656464636328
:1032300062616160605F5F5E5E5D5D5C5C5B5B5AAE
:103240005A5959585857575656555555545453531B
:1032500052525251515050504F4F4F4E4E4D4D4D76
:103260004C4C4C4B4B4B4A4A4A49494948484847C1
:1032700047474746464645454544444444434343FF
:1032800043424242424141419C46002B30D47700A8
:103290002BD04FEA37071CB503B44FF010004FF0A6
:1032A0001001BAF1000F06D0BCF1000FDCBF40F0F6
:1032B000080040F008014FF000000FBCBDE81040CE
:1032C0000BF1010BBBF1010F08BF5FEA170722BF2B
:1032D00012F1010211F101014FF0004143F100032D
:1032E00000F0004043EA00007047F9D35708D0E7E8
:1032F00046EA06464FEA164613F1400F1FDD13F16A
:10330000200FDFBF16430A46002120335B42BED0A8
:10331000C3F1200746EA06464FEA164602FA07F7C7
:1033200046EA070622FA03F2C3F1200701FA07F77B
:1033300042EA070221FA03F14FF00003A7E746EA49
:10334000020646EA06464FEA164646EA0106BCBFB2
:1033500046EA0646360C4FF000034FF000024FF0ED
:10336000000194E72DE9804C70B49A46934691E8A9
:10337000380007C831EA400C48BF34EA430C03D593
:10338000FFF7E6FDFFF780FFF0BCBDE8008C2DE9FC
:10339000804C70B49A46934691E8380007C810F004
:1033A000804F08BF13F0804F03D100F005F8FFF7FE
:1033B0006BFFF0BCBDE8008C20F07F4723F07F4C12
:1033C00080EA030000F0004007EB0C03A3F57C53F8
:1033D000A3F1FE0392F0000F00F0B38095F0000F10
:1033E00000F077802DE901494FEA114021EA0048B9
:1033F0004FEA144624EA064700FB06FC08FB06F6E3
:1034000007FB08F818EB06484CEB164C00FB07F7D7
:1034100018EB07484CEB17404FEA124B22EA0B4ED1
:103420004FEA154625EA06470BFB06FC0EFB06F69F
:1034300007FB0EFE1EEB064E4CEB164C0BFB07F784
:103440001EEB074E4CEB174B18EB0B0840F100003E
:1034500018EB0E0B58EB000840F100008F1A4FF0EC
:1034600000014FF000063CBFC943661B14BFB5EB1B
:10347000040C00213CBFC943F61B4FEA174427EA5E
:1034800004454FEA1C472CEA074C04FB076205FB86
:1034900007F70CFB05F616EB074642EB174204FB59
:1034A0000CFC16EB0C4642EB1C421BEB060658EBE1
:1034B000020241414EEA8E0E46EA9E0601D5BDE863
:1034C0000189B619524141EB0101A3F10103BDE8A5
:1034D00001894FEA144524EA05464FEA114721EADB
:1034E000074C05FB07F406FB07F70CFB06F111EB95
:1034F000074144EB174405FB0CFC11EB0C4144EB7A
:103500001C444FEA124722EA074C05FB07F206FB70
:1035100007F70CFB06F616EB074642EB174205FBD6
:103520000CFC16EB0C4642EB1C456A1854F10001EA
:1035300048BF7047B619524141EB0101A3F10103A5
:10354000704795F0000F37D04FEA114221EA02464A
:103550004FEA144724EA074C02FB07F106FB07F782
:103560000CFB06F414EB074441EB174102FB0CFC87
:1035700014EB0C4441EB1C414FEA154725EA074C7C
:1035800002FB07F506FB07F70CFB06F616EB0746F2
:1035900045EB174502FB0CFC16EB0C4645EB1C42B9
:1035A000121951F1000148BF7047B619524141EB61
:1035B0000101A3F1010370474FEA144524EA0546CF
:1035C0004FEA114721EA074C05FB07F106FB07F715
:1035D0000CFB06F212EB074241EB174105FB0CFC1A
:1035E00012EB0C4251EB1C414FF0000648BF7047F4
:1035F000921841EB0101A3F101037047490050EA21
:10360000C12018BF04204A0D18BF40F0010040F24D
:10361000FF72B2EB515F08BF40F00200012808BF03
:103620000520704730380A2801D201207047002059
:103630007047000010B500290AD00878002807D08C
:1036400005487844FDF74AFA002801D0002010BD53
:103650000248784410BD0000960900008E09000061
:1036600010B591EA030F48BF83F0004300F15C837B
:10367000841A71EB030C05D2121943EB0C03001BE7
:1036800061EB0C014FEA1154A4EB135CDFF81CE171
:103690001EEA430F18BF9EEA445F00F0748021EADF
:1036A000045123EA0E0343F48013DCF1200E32D3DD
:1036B00022FA0CFE10EB0E0023FA0CFE41EB0E0179
:1036C000CCF1200E03FA0EFE10EB0E00CCF1200E12
:1036D00051F10001B1F5801F32D201EB045112FA11
:1036E0000EF2BDE8104058BF7047401C38BF5FEA7B
:1036F000420218BF7047002814BF20F0010041F1BA
:1037000000014FEA410313F5001F38BF7047A1F1D4
:10371000C04100F0FBBA012A43EB0302ACF1200CDC
:10372000DCF11F0E32BF4FF0000E23FA0CF310EB4A
:10373000030041EB0451B4EB115FD0D0A1EB045175
:1037400001F58011490801EB04515FEA30000ED306
:1037500050F1000038BF12FA0EFE08D1BDE810404B
:10376000C9E7401C38BF5FEA4202CAD1C3E7BDE8DF
:1037700010404FEA410313F5001F38BF7047A1F115
:10378000C04100F0C3BA9EEA445F08D011EA5E0F60
:10379000BDE8104004BF01F0004100207047BDE8C3
:1037A000104070B500F064FA64FBBE3E0000E0FF1C
:1037B0002DE9C04130B4DFF8A8C23CEA111418BFAB
:1037C0003CEA131400F0F0801CEA111481EA0305AE
:1037D00044EAD57418BF1CEA131500F0CB80A4EBA3
:1037E000050404F17F7404F500344FF0004545EA08
:1037F000C12145EAC32341EA505143EA52534FEAFB
:10380000C0204FEAC222994208BF904200F0A08037
:103810004FEA13650FF24816765D4FEA134506FB33
:1038200005F7C7F1807706FB07F74FEAD737A7FB05
:1038300003687642A7FB06CEC8F5803838BFA8F1EA
:10384000010807FB08E6A6FB028C4FF0000EE6FB22
:1038500003CED8F100086FEA0C0C5CF1000C6FEAA3
:103860000E0E4EF1004EA6FB0C584FF00007E6FB83
:103870000E87A1FB08C6A0FB07CE16EB0E064FF085
:10388000000545F10005E1FB076515F1E04E7EBF3F
:10389000A4F580345FEA46066D4116F1800745F1D4
:1038A00000054FEA172747EA05674FEA15254FEA53
:1038B0000666A6F1DE46B6F1805F20D9384605EBF4
:1038C000C47124F0010C01EB0C11BCF1FE6F02D8A5
:1038D000F0BCBDE8008124425CBF01F5801E9EEA79
:1038E000C47F02D4F0BCBDE80081244200F13980DD
:1038F000A1F1C041F0BCBDE8004100F007BA4FEAB9
:10390000D02040EA41504FEAD1214FEAD22242EA88
:1039100043524FEAD323A7FB028607FB036605FB4E
:1039200002661EEA0E0F58BFA6EB0056B6EB005615
:103930004FEA520E4EEAC37E18EB0E0E56EB530EB4
:10394000BCD518EB02085E417F1C55F10005B5E7B8
:103950004FF480154FF000074FF000064FF00008BD
:10396000ACE701F1C04101F000414FF00000F0BCB4
:10397000BDE800810CEA131511EA0C1F00D00CE021
:1039800013EA0C1F00F025804FF0000081EA0301CC
:1039900001F00041F0BCBDE80081F0BCBDE8004191
:1039A00081EA030100F0B2B9F0BCBDE8004170B596
:1039B00000F05EF9097EFC3E00F007B84FF0000011
:1039C00081EA030101F00041704781EA030100F040
:1039D0009DB9F0BCBDE8004122494FF0000070479E
:1039E000FFFDFBF9F7F5F4F2F0EEEDEBE9E8E6E4C4
:1039F000E3E1E0DEDDDBDAD8D7D5D4D3D1D0CFCD4B
:103A0000CCCBCAC8C7C6C5C4C2C1C0BFBEBDBCBB83
:103A1000BAB9B8B7B6B5B4B3B2B1B0AFAEADACAB7E
:103A2000AAA9A8A8A7A6A5A4A3A3A2A1A09F9F9E58
:103A30009D9C9C9B9A99999897979695959493930A
:103A4000929191908F8F8E8E8D8C8C8B8B8A8989A1
:103A50008888878786858584848383828281818024
:103A60000000FF070000F87F4FEA41034FEA53537D
:103A7000A3F58063D3F11E03C8BFD3F1210C0CDD85
:103A80004FF0004242EAC12242EA505232FA03FCAD
:103A90008CEAE17CACEBE1707047102BC4BF0020D6
:103AA000704703F5787CBCF1FF3F04D06FF0004213
:103AB00082EA2100704770B500F0DAF8499224805C
:103AC00000207047F2E710F0004248BF4042B0FAD1
:103AD00080F310FA03F10AD0C3F11D0303F58063EC
:103AE00002EB03524FEA415002EBD12170474FF0F5
:103AF00000007047B0FA80F310FA03F10AD0C3F166
:103B00001D0303F580634FEA03524FEA415002EB75
:103B1000D12170474FF000007047000070B5DFF80A
:103B200048C11CEA111E1EBF1CEA13159EEA0C0FA9
:103B300095EA0C0F00F06F8081EA03044EEAD47E10
:103B4000AE4421EA4C1123EA4C1341F4801143F4B2
:103B50008013AEF17F7EA1FB024CA0FB03653619FA
:103B600055EB0C05A1FB034C4CF10003A0FB021C20
:103B700016EB0C06654153F10003094218BF46F0ED
:103B8000010613F4007F0BD14FEA03314FEA0530F1
:103B900041EA155140EA165034036FF003020AE07F
:103BA0004FEAC3214FEAC52041EA555140EA565039
:103BB000F4026FF0020202EB2E4201EB025585EA9D
:103BC000CE710AD05FEA440C18BF24F0004450F1D3
:103BD000000041F1000120EAD47040F2FE7C624511
:103BE00000D270BDA84214BF4FF080444FF0404453
:103BF000002E08BF0024BEF1806FA8BFA1F1C04114
:103C0000BDE8704080F2828001F1C04101F00041C6
:103C10004FF0000070470CEA13159EEA0C0F18BF16
:103C200095EA0C0F06D081EA030E4FF000000EF06B
:103C3000004170BD00F01CF88900013E00F007B89B
:103C400000F009B84FEA430C5FEA5C5C08D081EAF7
:103C5000030100F05BB84FEA410C5FEA5C5CF6D10F
:103C600002494FF0000070470000FF070000F87F96
:103C70000EF1020E2EF0030E5EF8046B364205D4F0
:103C8000012A43EB030515F5001F12D8012841EB6B
:103C9000010C1CF5001F0CD80ED14FEAD17C0CEBA7
:103CA0004C0C0CF1020C15F5001F08BF4CEBD37C3B
:103CB00004E04FF0080C01E04FEAD37C0CEB4C051C
:103CC00026FA05F606F00706B6F1040C06D20EEB4E
:103CD000860CBDE870404CF0010C6047DFE80CF04A
:103CE000090B02024FF00041A1F500214FF0000046
:103CF00070BD19461046012851EB010418BFD4F5D8
:103D0000001484BF002001F0004170BD0808A0F538
:103D100000114FEA3101704710B591EA030F48BF17
:103D200083F000433FF5A4AC841A71EB030C07D277
:103D30008CF0004C121943EB0C03001B61EB0C01DF
:103D40004FEA1154A4EB135CDFF8A4E11EEA430F21
:103D500018BF9EEA445F00F0B48021EA045123EAD0
:103D60006E035242C3EB6E0338BF5B1EDCF1200EC4
:103D700025D322FA0CFE10EB0E0043FA0CFE41EBA9
:103D80000E01CCF1200E03FA0EFE10EB0E00CCF16A
:103D9000200E51F1000129D401EB045112FA0EF268
:103DA000BDE8104058BF7047401C1CBFB2F1004F27
:103DB000704700280CBF491C20F00100704712EB2F
:103DC000020E43EB030218BF4FF0010E4EEA42020F
:103DD000ACF1200CDCF11E0E56D943FA0CFE10EBB0
:103DE0000E00CCF11E0E51F1FF31D5D50EF1010EB2
:103DF00012FA0EFE404141EB010101EB445C5FEA27
:103E00005C5C10D901EB045110EBDE7038BFBEF1E1
:103E1000004FBDE8104018BF704700280CBF491C78
:103E200020F00100704734D24FEAD42C24F400640F
:103E300011F500111BD0B1FA81F20B3AA41AA41E9D
:103E4000D2F12003914030FA03F31943904001EB83
:103E5000CC7101EB0451002CBDE81040A8BF7047A5
:103E600001F1C04101F000414FF000007047B0FA8D
:103E700080F310FA03F102D1BDE810407047E41A54
:103E8000173C4805C90AE2E701EB0451BDE81040C0
:103E9000704749104FEA300001EB0451BDE8104073
:103EA00002E04FF0000170474A0008BF0042F8D01E
:103EB000B2F5001F28BF704701F000414FF000002D
:103EC00070479EEA445F07D011EA5E0FBDE81040DC
:103ED00004BF002100207047BDE8104070B5FFF717
:103EE000C7FE00BF40DFF63E104683F0004170473A
:103EF0000000E0FFFCF76FBB02400000000000A0E4
:103F00000000000005400000000000C800000000A4
:103F10000C4000000000409C000000001940000020
:103F20000020BCBE0000000034400000BFC91B8E52
:103F300000000004B5400000504BCFD06607E2CF30
:103F4000010000006C4100003E8251AADFEEA73460
:103F500001000000D9420000DCB5A0E23A301F9712
:103F6000FFFFFFFFB4450000FD25A0C8E9A3C14F36
:103F7000FFFFFFFFFF3F0000000000800000000087
:103F8000FF3F000000000080000000000000000073
:103F900000000000010203040607080900000000F9
:103FA00001020304010202030405060708090A0BC3
:103FB0000C0D0E0F10100000F83F0008000000204C
:103FC0001000000050010008084000081000002008
:103FD00048070000700100081C00000043000000BA
:103FE000F8FFFFFF0C0000000E0000000F000000B3
:103FF0002E00000000000000010000001000000082
:0840000000127A00000000002C
:04000005080000ED02
:00000001FF
