:020000040800F2
:1000000058070020A1010008012A0008C5210008A6
:10001000FD290008410B0008E12B0008000000004A
:10002000000000000000000000000000C92B0008D4
:10003000D10F000800000000052A0008CD2B0008A1
:10004000BB010008BB010008BB010008BB010008A0
:10005000BB010008BB010008BB010008BB01000890
:10006000BB010008BB010008BB010008BB01000880
:10007000BB010008BB010008BB010008BB01000870
:10008000BB010008BB010008BB010008BB01000860
:10009000BB010008BB010008BB010008BB01000850
:1000A000BB010008BB010008BB010008BB01000840
:1000B000D52B0008BB010008BB010008BB010008EC
:1000C000BB010008BB010008BB010008BB01000820
:1000D000BB010008BB010008BB010008BB01000810
:1000E000BB010008BB010008BB01000800F002F8DA
:1000F00000F047F80AA090E8000C82448344AAF17B
:100100000107DA4501D100F03CF8AFF2090EBAE878
:100110000F0013F0010F18BFFB1A43F0010318473B
:10012000D03E0000F03E0000103A24BF78C878C1ED
:10013000FAD8520724BF30C830C144BF04680C60ED
:10014000704700000023002400250026103A28BF35
:1001500078C1FBD8520728BF30C148BF0B60704739
:10016000662903F0E386002070471FB500F072FB9C
:1001700004000020002103F08FFAE0601FBD10B5DD
:1001800010BD00F067FC1146FFF7EFFF02F07AFDAB
:1001900000F085FC03B4FFF7F2FF03BC00F0C8FCDD
:1001A0000948804709480047FEE7FEE7FEE7FEE70B
:1001B000FEE7FEE7FEE7FEE7FEE7FEE70448054947
:1001C000054A064B70470000D12B0008ED000008DF
:1001D0005801002058070020580300205803002031
:1001E0000FB41CB5074B06AA7B44694600900598DE
:1001F00000F017FB0020694600F026FB1CBC5DF8F0
:1002000014FB00005D0600002DE9F0474FF0000AE6
:1002100089460446C0F820A02046E16888470028A7
:1002200076D0252806D0D4E901219047206A401CC9
:100230002062F1E7E168204600268847C4F81CA048
:1002400005460027C4F818A02A2D09D0284603F037
:100250001BFA38B304EB8708303DC8F8185019E092
:1002600059F8041B204604EB87029161E168884736
:10027000012F054618D1E069002820DA26F0200673
:100280001DE0D8F8180000EB800005EB4000303886
:10029000C8F818002046E1688847054603F0F4F9DD
:1002A0000028EED1012F0AD02E2D08D12046E1687A
:1002B00088477F1C0546022F46F02006C4DBA06954
:1002C000002803DA404246F00106A061F00701D0A1
:1002D00026F010066C2D0AD0682D08D04C2D39D090
:1002E0006A2D35D0742D35D07A2D33D016E0E168E3
:1002F0002F4620468847B84205460AD16C2F27D0A2
:100300004FF48060E168064320468847054605E0D3
:1003100027E06C2F1AD04FF4807006430DB3A5F17F
:100320004100192802D8203546F400664A4629467D
:10033000204626604E46FFF713FF80B101280BD000
:10034000F61D26F0070000F1080965E74020E4E704
:100350008020D7E70020D5E706F104095CE72846AE
:1003600061E7206ABDE8F08710B5431C02E010F891
:10037000011B71B18107FAD14FF0013202C88C1A0A
:100380008C4314EAC211F9D0C01A0A0603D0C01E69
:1003900010BDC01A10BD0A0401D0801E10BD090294
:1003A000FCD0401E10BD4FF0000200B5134694462D
:1003B0009646203922BFA0E80C50A0E80C50B1F1BD
:1003C0002001BFF4F7AF090728BFA0E80C5048BFD1
:1003D0000CC05DF804EB890028BF40F8042B08BF6F
:1003E000704748BF20F8022B11F0804F18BF00F86B
:1003F000012B70477047704770472DE9FF4F0C463F
:100400001E464FF0FF378BB0D2E90001DDF8608067
:100410000A908A46C1F30A5505B93D4600210846AF
:100420004FF00000BAF1000F00F4400005DA00EBD5
:1004300080004FF4400101EA50004FEA9059B9F1B1
:10044000010F00DDB9460A9850EA4A000ED044F682
:100450001050A5F2FF3545432F14B8F1000F1ED000
:100460007542291E1EDDC9F100021CE0B8F1010F22
:100470004FF0000001D0302103E0F24305E02154A9
:10048000401CB042FBDB30460022002121540B9976
:10049000C1F80880C1E900200FB0BDE8F08FBD1B96
:1004A0006D1CDEE74A4600DA694206A800F05CFAF5
:1004B00006AB93E8070003AB83E8070050460A99B0
:1004C00002F006FD8DE80700A0F500501F380090EF
:1004D0000398002D0ADD42F21F014A46084400231A
:1004E00003A90390684602F06FFF09E0A0F50050F1
:1004F0004A461F38002303A90390684602F079FF9B
:100500008DE807000004000C03D04FF0FF304108D5
:1005100000E01046B8F1000F03D00022009215460B
:100520001EE0751E05D400F099F9303262556D1E3B
:10053000F9D5B3460122084302D000227F1C04E013
:100540002078302801D100227F1E002A099784D00C
:100550001DE0112D07DA00F081F9303262556D1C73
:1005600050EA0102F5D1084302D00098C8B10EE06C
:100570000021681E05E0235C625C63542254401E27
:10058000491C8142F7DBAB46A81B401E09900020A6
:1005900004F80B000B98099AC0F80880C0E9002BFA
:1005A0007AE711264FF0000857E72DE9F04F88460B
:1005B0000446D21D22F0070191B0D1E90001CDE936
:1005C0000A0103F04DF802460B98C00F01D02D2010
:1005D00007E02068810701D52B2002E0202101EAF5
:1005E000C000032A099001D0072A05DB03464146D3
:1005F000204600F079F90BE12078800601D5E0690A
:1006000000E00620B8F1650F814606D0B8F1660F0C
:1006100018D0B8F1670F70D131E00020B9F1110F97
:10062000009001DB112301E009F101030AAA01A9ED
:100630000CA8FFF7E2FEDDE90C70002609F10105C8
:10064000834647E001204B4600904FF000470AAA3E
:1006500001A90CA8FFF7D1FEDDE90DB00C995D46AC
:10066000002610B909F101000D18B9EB050003D4FB
:10067000C0F1FF3609F10105A5EB09002BE0B9F146
:10068000010F01DA4FF001090020B9F1110F0090BC
:10069000484601DD112300E003460AAA01A90CA87F
:1006A000FFF7ABFEDDE90C704D460026834620784F
:1006B00000070AD4AB4500DA5D4601A8012D04DD30
:1006C000411911F8011C302907D04F4502DA17F102
:1006D000040F04DA012082460FE06D1EEEE7002FC2
:1006E00002DCED1B3E4403E0781CA84200DD7D1CCB
:1006F000B81B00F1010A4FF000472078000703D42F
:10070000AA4501DB4FF0FF3A0021B7F1004F0DF190
:1007100043088DF8431024D002202B23002F01DA48
:100720007F422D230A21021EA0F1010000DC5FB1EF
:1007300097FBF1FC97FBF1F201FB1C7C17460CF1D7
:10074000300C08F801CDEEE7A8F101000370218814
:10075000090501D5452100E06521A0F1010800F857
:10076000011C09980FA9A1EB0807FF1D00B101208A
:10077000411901EBEA70A1693844081A401EA061D2
:100780002078C00602D42046AFF30080099828B133
:10079000D4E901219047206A401C20622078C006DD
:1007A00022D52046AFF300801EE0002E04DBB345C7
:1007B00002DD01A8805D00E03020D4E901219047EE
:1007C000206A401C2062761CAAF101005FEA000A40
:1007D0000AD100F03FF8C0680168405CD4E901210B
:1007E0009047206A401C2062281EA5F10105DCDC30
:1007F00007E0D4E9012118F8010B9047206A401C5A
:100800002062381EA7F10107F3DC2046AFF3008019
:10081000032011B041E6000001694A1C026108781A
:10082000704700B58FB0CDE9013100210591054930
:100830007944CDE9031011466846FFF7E5FC0FB097
:1008400000BD0000E5FFFFFF0A6802F8010B0A6027
:1008500070470000004870473000002030B5B0F10C
:100860000A0271F100034FEA900E4EEA817EB0EB6E
:100870000E0061EB91014FEA101E4EEA017E10EB73
:100880000E0041EB11114FEA102E4EEA016E10EBF3
:100890000E0041EB11214FEA104E4EEA014E10EBD3
:1008A0000E0041EB1141401841F100014FEAD00028
:1008B00040EA41704FEAD1014FEA810444EA907462
:1008C00010EB800544EB01046D1944EB0404521B4A
:1008D000A3414FF0000348BF0A3200D530BD401C91
:1008E00041F1000130BD00002DE9F0411F460446F2
:1008F00003260168072A01F4006004DB08B116A58D
:1009000005E016A503E008B115A500E015A521F046
:1009100010002060A069C01EA0610FB1401EA06140
:100920002046AFF300804FB1D4E90121384690470B
:10093000206A401C2062C01C206206E0206AFAE7A0
:10094000D4E9012115F8010B9047761EF8D2204614
:10095000AFF30080BDE8F0814E414E006E616E0045
:10096000494E4600696E66002DE9F04781461646FD
:100970008AB0354878440DC88DE80D003248784477
:10098000801C03AC0DC884E80D0041F69B30084480
:10099000372190FBF1F290FBF1F5A5F1800501FB09
:1009A00012041B3C02D56442012000E00020DFF865
:1009B00098A080460027FA44AAF1BE0A0EE0E0079C
:1009C0000AD03246684607EB470101230AEB810152
:1009D00002F00FFD8DE8070064107F1C002CEED1A3
:1009E000194F7F44AE3F19E0E80715D007EB04101C
:1009F0000DF1180A90E80E008AE80E00C068F04277
:100A000001D1981908903246012306A903A802F0E3
:100A1000F0FC03AB83E807006D10641C002DE3D1EC
:100A20004FF0010332466946B8F1000F03A802D027
:100A300002F0CAFC01E002F0DCFCC9E90001C9F8DF
:100A400008200AB0BDE8F08734360000004870473F
:100A5000100000207546FFF7F9FFAE460500694615
:100A6000534620F00700854618B020B5FFF7A6FBD7
:100A7000BDE820404FF000064FF000074FF000089F
:100A80004FF0000BAC46ACE8C009ACE8C009ACE8DC
:100A9000C009ACE8C00921F007018D46704710B5C8
:100AA0000446AFF300802046BDE81040FFF772BB5C
:100AB0004FF0013C50F8042B51F8043B9A4221D1ED
:100AC000A2EB0C03934313EACC1317D150F8042B79
:100AD00051F8043B9A4215D1A2EB0C03934313EA5D
:100AE000CC130BD150F8042B51F8043B9A4209D196
:100AF000A2EB0C03934313EACC13DBD04FF00000BE
:100B0000704700BFD01A01BAB1FA81F101F01801A3
:100B100022FA01F0CB40DBB2C0B2C01AC1F1200111
:100B20002CFA01F3D11A914311EAC311E6D17047AF
:100B300001491820ABBEFEE7260002007047000006
:100B4000FEE70000B0B584B0102040F600440090ED
:100B50000020C4F20104CDE901000320039069469E
:100B6000204600F051FA2046102100F05BFB0128DE
:100B700014D100200546012002F034F8204610214F
:100B800000F050FB012803D1C72D05F10100F1D37E
:100B9000C62D03D9012004B0B0BD00BF20461021EE
:100BA00000F040FB012803D1002004B0B0BD00BF1D
:100BB000002000BF0546012002F014F82046102155
:100BC00000F030FB012803D0EF2D05F10100F1D337
:100BD0000020EE2D88BF012004B0B0BD2DE9F0410A
:100BE00084B040F60044EFF3108072B6C4F2010402
:100BF0004FF0100801270026032569462046CDF84E
:100C0000008001970296039500F0FEF9204610211E
:100C1000002200F00DFB40F2EE2001F0E3FF204641
:100C20001021012200F004FB0F2001F0DBFFFFF791
:100C300089FFCC2000F0D6F8442000F0D3F86946B4
:100C40002046CDE90087CDE9026500F0DDF92046B8
:100C50001021002200F0ECFA40F2EE2001F0C2FF79
:100C600020461021012200F0E3FA0F2001F0BAFF24
:100C7000FFF768FFCC2000F0B5F8BE2000F0B2F816
:100C800000F066F8054600F063F80446072888BFC0
:100C90004FF0FF3685EA060084EA0601C0B240EA5A
:100CA000012000B262B602F03EFF0023C3F6E473F7
:100CB000002202F04FFF02F007FF072C88BF4042DE
:100CC00000B204B0BDE8F0812DE9F04184B041F2FA
:100CD0001800C4F20200016840F6004441F0080127
:100CE00001600068C4F2010400F008000090009860
:100CF0002046102101224FF01008012600F098FA3A
:100D00000027032569462046CDE900860297039512
:100D100000F07AF969462046CDE90086CDE90275F2
:100D200000F072F920461021002200F081FA40F212
:100D3000EE2001F057FF20461021012200F078FA42
:100D40000F2001F04FFFFFF7FDFE04B0BDE8F0817A
:100D50002DE9F04F85B040F60044C4F201040027AD
:100D60004FF010094FF0030A0DF1040B0026012586
:100D7000012002A981E8810420465946CDF804905B
:100D800000F042F920461021002200F051FA022022
:100D900001F028FF20461021012200F049FA2046E8
:100DA0005946CDE90197CDE9037A00F02DF90C20E1
:100DB00001F018FF2046102100F034FA0138B0FA93
:100DC00080F04FEA5018322001F00CFFC6F34600C5
:100DD00040EAC816082D05F10105C9D3304605B013
:100DE000BDE8F08F2DE9F04784B007464FFA80FA4E
:100DF0001020009001200190002040F60044029055
:100E00000320C4F2010403906946204600F0FCF878
:100E100020461021002207F0010500F009FA002DFC
:100E20004FF002004FF03C054FF0020908BF3C2094
:100E30004FF03C0808BF022501F0D4FE20461021E7
:100E4000012200F0F5F9284601F0CCFE17F002006F
:100E50004FF002054FF03C0620464FF010014FF0D6
:100E6000000208BF3C2508BF022600F0E1F9284631
:100E700001F0B8FE20461021012200F0D9F93046D9
:100E800001F0B0FE17F004004FF002054FF03C06F1
:100E900020464FF010014FF0000208BF3C2508BF6C
:100EA000022600F0C5F9284601F09CFE20461021DC
:100EB000012200F0BDF9304601F094FE17F0080061
:100EC0004FF002054FF03C0620464FF010014FF066
:100ED000000208BF3C2508BF022600F0A9F92846F9
:100EE00001F080FE20461021012200F0A1F93046D9
:100EF00001F078FE17F010004FF002054FF03C06AD
:100F000020464FF010014FF0000208BF3C2508BFFB
:100F1000022600F08DF9284601F064FE20461021DB
:100F2000012200F085F9304601F05CFE17F0200048
:100F30004FF002054FF03C0620464FF010014FF0F5
:100F4000000208BF3C2508BF022600F071F92846C0
:100F500001F048FE20461021012200F069F93046D8
:100F600001F040FE17F040004FF002054FF03C0644
:100F700020464FF010014FF0000208BF3C2508BF8B
:100F8000022600F055F9284601F02CFE20461021DB
:100F9000012200F04DF9304601F024FE20461021D8
:100FA0000022BAF1FF3FC4BF4FF002084FF03C09E6
:100FB00000F03EF9484601F015FE204610210122BE
:100FC00000F036F9404601F00DFE04B0BDE8F087B0
:100FD00070470000EFF3108072B600BFFEE700001C
:100FE000B0B5044600F02AF9054640F20000C2F20E
:100FF00000000078611C18BF044400BF00F01EF917
:10100000401BA042FAD3B0BD2DE9F04F82B00E686C
:10101000002E00F0038141F20042C4F201020423D9
:1010200040F2004E904208BF03234FF6FF7CC4F20B
:10103000010E009300240123C1F2100C4FF0000AAE
:101040004FF0000949E000BF012704F00C030F2214
:101050009A402BEA020207FA03F34FEA9A051A4371
:1010600046F82520D1F804B040F20C455FEACB22C7
:10107000DEF8082054BF22EA080242EA0802C4F25D
:101080000105CEF808202A685FEA8B2354BF22EAC4
:10109000080242EA08022A605FEA8B33DEF8042085
:1010A00054BF22EA080242EA08025FEACB33CEF8D4
:1010B0000420DEF800204FF0010354BF22EA0802AA
:1010C00042EA0802CEF800200E680AF1010A36FA58
:1010D0000AF204F1040400F0A18003FA0AF816EA07
:1010E000080FF1D04E68664512DC122E56D8DFE8A4
:1010F00006F0350B454955555555555555555555DA
:101100005555554D510000BFD1F80C9046E000BF39
:101110004FF6FF72C1F2210296420FDC0022C1F2AB
:10112000110296421AD00022C1F21202964215D044
:101130000022C1F22102964210D02FE00022C1F21B
:10114000220296420AD00022C1F23102964205D014
:101150000022C1F23202964220D100BF8A684AB111
:10116000012A14BFC0F81480C0F810804FF008099D
:1011700014E000BF4FF0040910E000BFCA6802F19C
:1011800008090BE04FF0000908E000BFCA6802F14F
:10119000040903E0CA6802F10C0900BF22460646B2
:1011A000BAF1080F24BF203A043637680F2595405E
:1011B00027EA050509FA02F22A433260CA79D20603
:1011C0007FF582AF41F21803C4F202031A68AEF54C
:1011D0007E7642F001021A601A6802F00102019262
:1011E000019A2AF0030256F802B040F60002C4F257
:1011F0000102904210D040F60042C4F20102904237
:101200003FF422AF41F20002C4F20102009F90427B
:1012100008BF022719E700BF002716E702B0BDE8A4
:10122000F08F00008068084018BF01207047000060
:10123000002A08BF090401617047000040F2541001
:10124000C2F200000068704740F2000040F2541102
:10125000C2F20000C2F2000100780A68104408607F
:101260007047000080B542F20000C4F2020001683D
:1012700041F010010160032000F08EF80F2000F013
:1012800005F800F027F8002080BD000070B540F29E
:101290000006C2F2000640F208013278C2F20001F4
:1012A0004FF47A730968B3FBF2F20446B1FBF2F132
:1012B000084600F063FB0F2C4FF0010508D838B941
:1012C0004FF0FF3021460022002500F039F874600D
:1012D000284670BD82B041F21800C4F202000168D5
:1012E000022241F001010160016801F00101019158
:1012F0000199416841F080514160406800F08050A0
:10130000009000980420C4F20100016862F31A61A1
:10131000016002B070470000002848BF7047C1B2AA
:1013200000F01F00012202FA00F04EF20012CEF28D
:10133000000242EAD10121F0030108607047000079
:1013400010B54EF60C5CCEF2000CDCF80030C3F3A6
:10135000022E8EF00704042C28BF0424BEF10303E0
:101360004FF0FF3E0EFA04F438BF0023A14399402A
:101370000EFA03F39A43114300F00F0200F16043A9
:101380000901043A03F564436244002848BF02F1AE
:101390000C03197010BD00004EF60C51CEF2000186
:1013A0000A684FF6FF031A4060F30A2242F0806099
:1013B00040F0FD70086070472DE9F04381B00028CF
:1013C00000F0858042F20008C4F202080446D8F812
:1013D00000000D4600F0070088420CD2D8F800004B
:1013E00020F007002843C8F80000D8F8000000F0FB
:1013F0000700A8426BD1206841F204098107C4F2BA
:10140000020917D5410705D5D9F8001041F4E0616C
:10141000C9F80010010705D5D9F8001041F4605152
:10142000C9F80010D9F80010A26821F0F0011143AA
:10143000C9F80010C00741D1D8F8000000F007003B
:10144000A8420CD9D8F8000020F007002843C8F8BB
:101450000000D8F8000000F00700A84237D120684B
:10146000410707D5D9F80010E26821F4E061114383
:10147000C9F80010000708D5D9F80000216920F448
:10148000605040EAC100C9F80000D9F8002002F01D
:101490000C00082841F20020C0F27A0050D143F637
:1014A000DE73C2F38341C0F60003595CD2033BD420
:1014B00040F60010C0F23D00484341E06068022859
:1014C0000AD001282AD159F8041C890308D4012024
:1014D00001B0BDE8F08300BF59F8041C8901F6D5BE
:1014E000D9F8001021F003010843C9F80000FFF704
:1014F000A5FE064641F28837D9F80000616800F081
:101500000C00B0EB810F97D0FFF798FE801BB8421C
:10151000F2D9032001B0BDE8F08300BF59F8041CE4
:101520008907D4D5DCE700BFD9F8002043F6DC7387
:10153000C2F34042C0F600039A5C4843B0FBF2F0AD
:10154000D9F8001043F6C472C1F30311C0F60002CB
:10155000515C40F2080220FA01F140F20400C2F2AC
:1015600000000068C2F200021160FFF78FFE002049
:1015700001B0BDE8F083000040F2080041F2040130
:10158000C2F20000C4F202010068096843F6D47296
:10159000C1F30221C0F60002515CC8407047000050
:1015A00040F2080041F20401C2F20000C4F202015C
:1015B0000068096843F6D472C1F3C221C0F6000284
:1015C000515CC840704700002DE9F04182B000280E
:1015D00068D00446007841F20006C007C4F2020653
:1015E00025D0706800F00C0004281BD0706800F053
:1015F0000C00082802D17068C00313D4606800286A
:1016000000F06881B0F5A02F00F07C81B0F5803F3C
:1016100000F07C81306820F480303060306820F445
:10162000802076E13068800301D56068D0B32078EF
:10163000800718D5706810F00C0F07D0706800F0A4
:101640000C0008286ED17068C0036BD43068800726
:1016500002D52069012825D13068616920F0F800A1
:1016600040EAC1003060207800071FD4207840078E
:1016700032D4E56995B1706800F00C00082840F09C
:101680008F80012D0ED07068216A00F480328A426A
:1016900008D1616A00F47010884203D1002002B0C2
:1016A000BDE8F081012002B0BDE8F081A06900280A
:1016B00062D00020C4F242200121C0F88014FFF75C
:1016C000BDFD0546706A800700F18C80FFF7B6FD0E
:1016D000401B0228F6D92AE1F06910F0805808D1A1
:1016E000F06940F08050F061F06900F080500090A7
:1016F000009847F20007C4F200073868C00529D4F3
:10170000386840F480703860FFF798FD054600BFE8
:101710003868C0051ED4FFF791FD401B6428F7D937
:1017200005E100BF2069002840F20000C4F2422019
:1017300000F0828001210160FFF780FD054600BFB7
:10174000306880073FF588AFFFF778FD401B02281F
:10175000F6D9ECE0E068002800F08080052800F071
:101760009780012800F09880306A20F001003062F4
:10177000306A20F0040092E00020C4F242200021F0
:10178000C0F88014FFF75AFD054600BF706A800755
:101790007FF56CAFFFF752FD401B0228F6D9C6E07B
:1017A0000027C4F2422700203866FFF747FD022DCC
:1017B00005460BD13068800140F1BE80FFF73EFD49
:1017C000401B02284FF00300F4D968E7306880011D
:1017D0007FF564AFFFF732FD401B02284FF0030096
:1017E000F4D95CE740F20800C2F20000006844F659
:1017F000D351C1F26201A0FB0101480A019000BF70
:1018000000BF0198411E002801913FF42FAF00BF97
:101810000198411E002801913FF428AF00BF0198B4
:10182000411E002801913FF421AF00BF0198411EE5
:1018300000280191E4D119E700210160FFF7FEFCC7
:10184000054600BF306880077FF50DAFFFF7F6FC57
:10185000401B02284FF00300F4D920E7306A20F043
:1018600001003062306A20F004003062FFF7E6FCCD
:10187000054641F2883700BF306A800720D5FFF760
:10188000DDFC401BB8424FF00300F5D907E700BF6D
:10189000306A40F004003062306A40F0010030628B
:1018A000FFF7CCFC054641F2883700BF306A80075D
:1018B00006D4FFF7C3FC401BB842F7D937E000BF9E
:1018C000B8F1000F7FF4D5AEF06920F08050F061E0
:1018D000CFE600BF306820F480303060306820F4FC
:1018E00080203060FFF7AAFC054600BF3068800307
:1018F0007FF59DAEFFF7A2FC401B64284FF003006C
:10190000F4D9CCE6306840F480203060306840F490
:1019100080303060FFF792FC054600BF30688003DE
:101920003FF585AEFFF78AFC401B6428F6D90320FB
:1019300002B0BDE8F08100BF206AB0F5803F05D15C
:101940007168A26821F40031114371607168626AA4
:1019500021F4741111430843706001203866FFF7C9
:101960006DFC0446306880013FF598AEFFF766FCD9
:10197000001B02284FF00300F4D990E6411E00201E
:10198000B0EB116F1CBF012070474EF21002CEF277
:10199000000251604EF62351CEF20001F0230B708D
:1019A0000721906011607047704700007047000089
:1019B00010B590F83C20012A4FF0020233D080F895
:1019C0003D200268D2F804E0D2F808C00C682EF07E
:1019D0007003234340F2FF74C4F20004A242536038
:1019E0000ADCB2F1804F13D040F20043C4F200038E
:1019F0009A420DD011E000BF42F60043C4F2010349
:101A00009A4205D040F60003C4F200039A4204D182
:101A100049682CF08003194391600121002280F86D
:101A20003D1080F83C20104610BD0000002804BF87
:101A30000120704710B5044690F83D0028B90020F9
:101A400084F83C00204600F06FF8022084F83D0046
:101A5000206840F2FF730268C4F2000342F6004CB3
:101A60009842C4F2010C15DCB0F1804F1AD040F25C
:101A70000041C4F20001884214D0984218DCB0F151
:101A8000804F1DD040F20041C4F20001884217D0BF
:101A90001AE000BF604505D040F60001C4F2000125
:101AA0008842EAD1A16822F070020A439842E6DD3A
:101AB000604505D040F60001C4F20001884203D120
:101AC000216922F440720A43A36922F08001D4F80C
:101AD00004E0E268194360450160C262C0F828E092
:101AE00002D16169CCF83010012141610269D2074D
:101AF00003D0026922F001020261002084F846103E
:101B000084F83E1084F83F1084F8401084F84110A7
:101B100084F8421084F8431084F8441084F8451087
:101B200084F83D1010BD000080B582B00068B0F1AF
:101B3000804F1CBF02B080BD41F21C00C4F2020005
:101B40000168002241F0010101600068002100F0FD
:101B50000100019001981C20FFF7F2FB1C2002B04D
:101B6000BDE88040FFF7D8BB90F83D1001291CBFAD
:101B700001207047022180F83D10006840F2FF729A
:101B8000C168C4F20002904241F00101C16009DC69
:101B9000B0F1804F12D040F20041C4F200018842FF
:101BA0000CD012E042F60041C4F20101884205D097
:101BB00040F60001C4F20001884206D1816801F0BC
:101BC0000701062904BF00207047016841F00101A8
:101BD000016000207047000080B590F83C20012A89
:101BE0004FF0020200F0C28080F83D20D0F800C023
:101BF0004FF67772DCF8083023EA0202CCF80820AE
:101C00000B684F2B28DC1F2B44DD202B45D0302BBD
:101C100043D0402B40F0AC80D1F804E0C968DCF838
:101C20002030DCF8202022F00102CCF82020DCF863
:101C3000182022F0F00242EA011123F00A0242EADF
:101C40000E02CCF81810CCF82020DCF8081041F077
:101C5000470121F0300180E06F2B27DDB3F5005FF5
:101C600048D0B3F5805F7AD0702B40F08180D1E905
:101C700001E3C968DCF8082043EA0E0322F47F423E
:101C800043EA01211143CCF80810DCF8081041F0B8
:101C9000770162E00BB1102B6AD1DCF8081021F05B
:101CA0007001194341F0070157E000BF502B35D0B8
:101CB000602B5DD1D1F804E0C968DCF82030DCF895
:101CC000202022F01002CCF82020DCF8182022F48A
:101CD000704242EA013123F0A00242EA0E12CCF82F
:101CE0001810CCF82020DCF8081041F0670121F032
:101CF000100132E0D1E901E3C968DCF8082043EAC9
:101D00000E0322F47F4243EA01211143CCF808106C
:101D1000DCF8081041F480411FE000BFD1F804E076
:101D2000C968DCF82030DCF8202022F00102CCF871
:101D30002020DCF8182022F0F00242EA011123F002
:101D40000A0242EA0E02CCF81810CCF82020DCF887
:101D5000081041F0570121F02001CCF808100022B2
:101D6000012180F83D10002180F83C10104680BD14
:101D70000122F5E77047000070B504460068C568A9
:101D80000669B10716D515F0020113D06FF00201F4
:101D90000161012121778069800703D02046FFF788
:101DA000E9FF05E0204600F08FF8204600F08EF8AD
:101DB00000202077700719D515F0040016D0206890
:101DC0006FF00401016102212177806910F4407FE6
:101DD00004D02046FFF7CEFF06E000BF204600F00B
:101DE00073F8204600F072F800202077300717D5EE
:101DF00015F0080014D020686FF00801016104217B
:101E00002177C069800703D02046FFF7B3FF05E0C4
:101E1000204600F059F8204600F058F800202077BE
:101E2000F00619D515F0100016D020686FF01001DB
:101E3000016108212177C06910F4407F04D0204659
:101E4000FFF798FF06E000BF204600F03DF820466F
:101E500000F03CF800202077F00718BF15F00100D3
:101E600002D1300609D412E020686FF0010101614F
:101E7000204600F02DF8300609D515F0800006D078
:101E800020686FF0800101612046FFF78DFD70062C
:101E900009D515F0400006D020686FF040010161BF
:101EA000204600F021F8B00658BF70BD15F02000A4
:101EB00008D021686FF0200220460A61BDE870401A
:101EC000FFF774BD70BD0000704700007047000050
:101ED0000068B0F1804F18BF704740F27000C2F246
:101EE000000001210170704770470000002804BF06
:101EF0000120704710B5044690F8410028B9002031
:101F000084F84000204600F063F8242084F8410063
:101F10002068D4E90212C36823F40053C360036944
:101F200023F440531A430261D4E904231143C268E5
:101F3000194341F20C639A431143C1604169A2699C
:101F400021F44071114343F60002C4F201029042B1
:101F5000416103D0FFF710FB02E000BFFFF720FB59
:101F60006268192148439100B0FBF1F048F21F511B
:101F7000C5F2EB11A0FB01235A094FF69C73C0F682
:101F8000FF7302FB0300322303EB0010A0FB0101EF
:101F9000F02303EA5113206803EB0212C1F343114B
:101FA00011448160016921F490410161416921F08E
:101FB0002A014161C16841F40051C1600020202123
:101FC000606484F8411084F84210606310BD000022
:101FD00070B586B040F60004C4F20104006804F550
:101FE000405100268842049602D006B070BD00BF62
:101FF00041F21800C4F20200016802AD41F48041D0
:102000000160016801F4804101910199016841F08A
:10201000040101600068294600F004000190019865
:102020004FF4007002900220039003200590204698
:10203000FEF7EAFF4FF48060CDE90206204629460C
:102040000496FEF7E1FF06B070BD00002DE9F041F7
:10205000044690F8410020281CBF0220BDE8F08112
:102060000D4600294FF0010000F0AA801646002A14
:1020700008BFBDE8F081002060642120984684F804
:102080004100FFF7DBF8A684E684A1680646B1F5B7
:10209000805F02D12069002862D02F460025E08CA5
:1020A000002861D018F1010018D0B8F1000F37D125
:1020B000216808E017F8010B4860E08C0138E084E3
:1020C000E08C002851D00868000673D5002FF1D1AC
:1020D00035F8020B00276FF35F20EDE7216802E07F
:1020E0000868000609D40868000606D408680006D7
:1020F0005CBF08685FEA0060F2D51FB117F8010BFA
:1021000005E000BF35F8020B00276FF35F20486041
:10211000E08C0138E084E08C0028E4D125E000BFA9
:10212000216800BF0868000608D4FFF787F8801B05
:10213000404541D82168C868F4E700BF17B117F8D7
:10214000010B04E035F8020B00276FF35F204860B5
:10215000E08C0138E084E08C0028E3D105E000BF8A
:102160000027E08C00289DD12168086840061FD414
:10217000B8F1000F1ED018F101000FD10868400619
:1021800016D40868400613D40868400610D40868BE
:1021900040064FF00000F1D50FE000BFFFF74EF80A
:1021A000801B404508D82068C16800684006F5D506
:1021B000002002E0FFF742F80320202184F84110BC
:1021C000BDE8F081FEE7000070B584B0002001900A
:1021D00080200090012040F6004402900320C4F2C9
:1021E0000104039069462046FEF70EFF2046402179
:1021F0000022FFF71DF8052000F0F4FC20464021E6
:102200000122FFF715F8052000F0ECFC20468021A4
:10221000FFF708F8054600284FF0050018BF012514
:1022200000F0E0FC204640210022FFF701F80520E5
:1022300000F0D8FC204640210122FEF7F9FF0520DE
:1022400000F0D0FC20468021FEF7ECFF002818BFEC
:10225000012040EA4506052000F0C4FC204640214C
:102260000022FEF7E5FF052000F0BCFC20464021DF
:102270000122FEF7DDFF052000F0B4FC204680219E
:10228000FEF7D0FF054600284FF0050018BF0125D6
:1022900000F0A8FC204640210022FEF7C9FF0520DF
:1022A00000F0A0FC204640210122FEF7C1FF0520DE
:1022B00000F098FCB00040EA450520468021FEF77A
:1022C000B1FF002818BF01202E18052000F08AFC5D
:1022D000204640210022FEF7ABFF052000F082FCE3
:1022E000204640210122FEF7A3FF052000F07AFCE2
:1022F00020468021FEF796FF054600284FF0050096
:1023000018BF012500F06EFC204640210022FEF798
:102310008FFF052000F066FC204640210122FEF7D9
:1023200087FF052000F05EFCB00040EA450520462E
:102330008021FEF777FF002818BF01202E18052006
:1023400000F050FC204640210022FEF771FF0520DE
:1023500000F048FC204640210122FEF769FF0520DD
:1023600000F040FC20468021FEF75CFF0546002877
:102370004FF0050018BF012500F034FC2046402135
:102380000022FEF755FF052000F02CFC20464021DE
:102390000122FEF74DFF052000F024FCB00040EACA
:1023A000450520468021FEF73DFF002818BF01208B
:1023B0002C18052000F016FCE0B204B070BD00003F
:1023C000B0B584B005461120019080200090012016
:1023D00040F6004402900320C4F2010403906946D1
:1023E0002046FEF711FE204640210022FEF720FF86
:1023F000EA0920468021FEF71BFF052000F0F2FBD2
:10240000204640210122FEF713FF052000F0EAFBE1
:10241000204640210022FEF70BFF052000F0E2FBE2
:10242000C5F3801220468021FEF702FF052000F050
:10243000D9FB204640210122FEF7FAFE052000F0DC
:10244000D1FB204640210022FEF7F2FE052000F0DD
:10245000C9FBC5F3401220468021FEF7E9FE0520A6
:1024600000F0C0FB204640210122FEF7E1FE0520DE
:1024700000F0B8FB204640210022FEF7D9FE0520DF
:1024800000F0B0FBC5F3001220468021FEF7D0FE1D
:10249000052000F0A7FB204640210122FEF7C8FEE0
:1024A000052000F09FFB204640210022FEF7C0FEE1
:1024B000052000F097FBC5F3C00220468021FEF7FF
:1024C000B7FE052000F08EFB204640210122FEF7DA
:1024D000AFFE052000F086FB204640210022FEF7DB
:1024E000A7FE052000F07EFBC5F380022046802178
:1024F000FEF79EFE052000F075FB204640210122DC
:10250000FEF796FE052000F06DFB204640210022DC
:10251000FEF78EFE052000F065FBC5F34002204665
:102520008021FEF785FE052000F05CFB204640215F
:102530000122FEF77DFE052000F054FB20464021DD
:102540000022FEF775FE052000F04CFB05F00102AD
:1025500020468021FEF76CFE052000F043FB20465C
:1025600040210122FEF764FE052000F03BFB2046DF
:1025700040210022FEF75CFE052000F033FB04B092
:10258000B0BD0000B0B584B0802040F6004400909B
:102590000120C4F201040290032000250390694643
:1025A00020460195FEF730FD052000F01BFB20467C
:1025B00040210122FEF73CFE052000F013FB00BF86
:1025C00020468021FEF72EFE50B30135C92DF7D3EA
:1025D000112001908020009003200125039069467E
:1025E00020460295FEF710FD204640210022FEF70E
:1025F0001FFE204680210022FEF71AFE052000F073
:10260000F1FA204640210122FEF712FE052000F0DB
:10261000E9FA204680210122FEF70AFE06E000BF0B
:102620002046402100220025FEF702FE052000F092
:10263000D9FA284604B0B0BD2DE9F04784B040F681
:102640000044C4F201040E4607464FF011084FF053
:10265000800901254FF0030A69462046CDF8048021
:10266000CDF800900295CDF80CA0FEF7CDFC2046E9
:1026700080210122FEF7DCFD204640210122FEF7E9
:10268000D7FD052000F0AEFA204680210022FEF79B
:10269000CFFD052000F0A6FA204640210022FEF7DB
:1026A000C7FD052000F09EFA7800C0B2FFF788FE53
:1026B000FFF768FF20B1284604B0BDE8F08700BFEF
:1026C0003046FFF77DFE69462046CDE90098CDE90A
:1026D000025AFEF799FC2046402100220025FEF711
:1026E000A7FD204680210022FEF7A2FD052000F074
:1026F00079FA204640210122FEF79AFD052000F0DC
:1027000071FA204680210122FEF792FD052000F09B
:1027100069FA284604B0BDE8F087000001380428B3
:1027200088BF704710B541F20004C4F20104DFE82D
:1027300000F04B392715030020464FF400510022CA
:10274000FEF776FDC820FEF74BFC20464FF4005103
:102750000122FEF76DFDC820FEF742FC20464FF433
:1027600000510022FEF764FDC820FEF739FC204628
:102770004FF400510122FEF75BFDC820FEF730FC4C
:1027800020464FF400510022FEF752FDC820FEF70C
:1027900027FC20464FF400510122FEF749FDC820D6
:1027A000FEF71EFC20464FF400510022FEF740FDCC
:1027B000C820FEF715FC20464FF400510122FEF719
:1027C00037FDC820FEF70CFC20464FF400510022D4
:1027D000FEF72EFDC820FEF703FC20464FF4005103
:1027E0000122FEF725FDC820FEF7FAFB20464FF434
:1027F00000510022FEF71CFDC820FEF7F1FB204629
:102800004FF400510122FEF713FDC820FEF7E8FB4C
:1028100020464FF400510022FEF70AFDC820FEF7C3
:10282000DFFB20464FF400510122FEF701FDC820D6
:10283000FEF7D6FB40F6B830BDE81040FEF7D0BB3F
:102840002DE9F04F85B041F21800C4F20200016892
:1028500040F6004941F0100101600168C4F201092D
:1028600001F0100101910199016809F5806741F0BB
:10287000200101600168012201F02001019101990C
:1028800001684FF4005641F00401016001684FF007
:10289000010801F0040101910199016841F008016A
:1028A000016000684FF4005100F0080001900198A9
:1028B0003846FEF7BDFCA9F5806528464FF4006157
:1028C00000220024FEF7B4FC4846102100224FF0FD
:1028D000100AFEF7ADFC4846C0210122FEF7A8FC15
:1028E000CDE9016801AE4FF0020B38463146039442
:1028F000CDF810B0FEF788FB4FF48070CDE90104ED
:10290000284631460394FEF77FFB4FF40060CDE983
:10291000010828463146CDE9034BFEF775FB0394C9
:10292000032448463146CDE901A80494FEF76CFB28
:10293000C02001901120CDE9020848463146049498
:10294000FEF762FB05B0BDE8F08F000080B586B0F1
:1029500040F2C4000021C2F200004FF0804241F674
:102960001F434FF0C70C0591CDE90311CDE90011CC
:10297000C0E90023C0E9021C01618161FFF756F83C
:10298000002818BFFEF726FB4FF48050029040F25B
:10299000C400C2F2000002A9FFF71EF9002818BF08
:1029A000FEF718FB40F2C400C2F200006946FEF7D1
:1029B000FFFF002818BFFEF70DFB06B080BD00002A
:1029C00080B540F20C1043F60001C2F20000C4F2E0
:1029D000010100234FF00C0C4FF4E13280E80E00AF
:1029E000C0E90333C0E905C3C361FFF77FFA0028DC
:1029F00008BF80BDBDE88040FEF7ECBAFEE70000EE
:102A0000FEE70000704700002DE9F04F85B0064654
:102A1000112040F6004402908020C4F2010401908D
:102A200003200F460125049001A920460395FEF7D7
:102A3000EBFA204680210122FEF7FAFB20464021D6
:102A40000122FEF7F5FB052000F0CCF8204680219E
:102A50000022FEF7EDFB052000F0C4F820464021DF
:102A60000022FEF7E5FB052000F0BCF88920FFF707
:102A7000A7FCFFF787FD18B1284605B0BDE8F08F29
:102A8000022F39D37F42013E4FF011084FF08009E9
:102A90004FF0010A4FF0030B01AD00BF0020FFF71C
:102AA00093FB06F8010F204640210022FEF7C0FBF1
:102AB00020462946CDE90198CDE903ABFEF7A4FAFB
:102AC000204680210022FEF7B3FB052000F08AF8A3
:102AD000204640210122FEF7ABFB052000F082F8E2
:102AE000204640210022FEF7A3FB052000F07AF8E3
:102AF0000137781CD2D1013600200025FFF764FB96
:102B00003070204640210022FEF792FB4FF0110862
:102B10004FF080090126032701A92046CDF808803F
:102B2000CDF8049003960497FEF76EFA20468021B4
:102B30000122FEF77DFB052000F054F820464021DD
:102B40000122FEF775FB052000F04CF820464021DD
:102B50000022FEF76DFB052000F044F801A9204695
:102B6000CDE90198CDE90367FEF74EFA20464021F2
:102B70000022FEF75DFB204680210022FEF758FB75
:102B8000052000F02FF8204640210122FEF750FBDF
:102B9000052000F027F8204680210122FEF748FB9F
:102BA000052000F01FF8284605B0BDE8F08F0000B2
:102BB00010B54420FD21FFF73FFD04460A20FEF733
:102BC0000FFA204610BD000070470000FEF73CBB26
:102BD0007047000040F2C400C2F20000FFF7CCB81A
:102BE000FEE7000010B5002808BF10BD4EF2180126
:102BF00041F6401CCEF20001C0F2010C03E000BF20
:102C0000B0EB0E003CD08646B0F5617F28BF4FF494
:102C1000617E0A680EEBCE035B4202EBC303002B1E
:102C200016D400BF0C689442EADA9C42E8DB0C68D8
:102C30009442E5DA9C42E3DB0C689442E0DA9C4281
:102C4000DEDB0C689442DBDA9C42EBDAD8E700BFAB
:102C5000634400BF0C68944201DD9C42D0DD0C68E7
:102C6000944201DD9C42CBDD0C68944201DD9C4224
:102C7000C6DD0C689442EDDD9C42EBDCC0E700BF92
:102C800010BD000094B0FEF7EDFA00240120CDE95C
:102C90000F44CDE90D440A900E904FF4E0104FF42C
:102CA0008031022513900AA8CDE90B14CDE911510A
:102CB000FEF78AFC20B1EFF3108072B6FEE700BF8A
:102CC0000F20CDE905054FF48060CDE9080405A883
:102CD00002210794FEF770FB20B1EFF3108072B66B
:102CE000FEE700BF41F20004C4F20104FFF7A8FDB3
:102CF000FFF766FEFFF72AFEA4F500604FF40061BF
:102D00000122FEF795FAFDF7DFFF30B10120FFF752
:102D100005FDFDF7D9FF0028F8D140F2C400C2F24A
:102D20000000016800224A62FEF71EFF40F2700AAE
:102D3000C2F2000A9AF800004FF6E07740F20C1B4E
:102D40000AF10205C4F2EF070AF12009C2F2000BF2
:102D5000012806D00120FEF743F99AF80000012867
:102D6000F8D120464FF400510022FEF761FAFFF738
:102D70001FFF002840F0928028460621FFF744FEFE
:102D8000002840F08D80BAF8020040BA00F0CBFE77
:102D90004EF200030022C4F2650300F0DBFE0022C5
:102DA0003B4600F037FD48F200030022CCF2460318
:102DB00000F088FCBAF80520CAE9040150BA00F016
:102DC000B2FE44F200030022C4F25F0300F0C2FE30
:102DD00000223B4600F01EFD00230022CCF2180327
:102DE00000F070FCCAE90601FDF7F8FEAAF8080039
:102DF0000120FEF7F5F8FDF7F1FEAAF80A00012020
:102E0000FEF7EEF8FDF7EAFEAAF80C000120FEF747
:102E1000E7F8BAF90800BAF90A10BAF90C20084420
:102E2000104400F080FE00230022C4F2080300F0EA
:102E3000F1FC00230022C4F2240300F0EBFC064660
:102E4000884648463221FDF7AEFADAE90601DAE9AA
:102E500004238DE84300484616A1CDF80C80FDF709
:102E6000BFF94846FDF780FA82B258464946052325
:102E7000FFF7ECF860B920464FF400510122FEF74D
:102E8000D7F900208AF8000001287FF463AF68E7D3
:102E900003280CBF0220032003E000BF042000E051
:102EA00005208AF8010000BFC0B2FFF737FC9AF88E
:102EB0000100F9E73C5450252E326C662C484D2514
:102EC0002E326C662C5450252E326C663E0000006B
:102ED0005FEA400C08BF91F0000F4FEA8C234FEAE5
:102EE000C12243EA51514FEA1C5018BF00F5F0408F
:102EF0004FEA300018BF41F000415FEA6C5C00F01F
:102F00002980BCF1FF3F08BF40F080407047130CA0
:102F100006BF12044FF0100C4FF0000C130E04BF4C
:102F200012020CF1080C130F04BF12010CF1040C77
:102F3000930F04BF92000CF1020CD30F04BF520098
:102F40000CF1010C11464FF00002A0F11F00A0EBA4
:102F50000C00704711F0004F08BF704731F000417E
:102F60003FF4D5AF0B0C06BF09044FF0100C4FF027
:102F7000000C0B0E04BF09020CF1080C0B0F04BF70
:102F800009010CF1040C8B0F04BF89000CF1020C39
:102F9000CB0F04BF49000CF1010CCCF1200322FA45
:102FA00003F341EA030102FA0CF2A0EB0C0000F17A
:102FB0000100704723F07F4720F07F4C80EA030038
:102FC00000F00040ACEB070303F57C5303F1FF0373
:102FD0002DE9804909B44FEA144324EA03484FEA33
:102FE000154B25EA0B4E0FF2042606EB13273E780D
:102FF00003FB0667C7F5000707FB06F64FEAD64650
:1030000006F102064FEA543707FB066CCCF1005C70
:103010004FEA1C472CEA074C0CFB06F507FB06F4AD
:1030200004EB15464FEA961649085FEA320234BFB0
:1030300000204FF000404FEAD13706FB07FC4FEA73
:103040001C4C0CFB0BF7D21B03FB0CF761EB0701CD
:103050000CFB0EF7B0EB074072EB17420CFB08F7C6
:1030600034BFA2EB0742B2EB074261EB17414FEAD4
:103070000C444FEA910706FB07FC4FEA1C4C0CFB83
:103080000BF7B0EBC74072EB573203FB0CF734BFC2
:10309000A2EBC742B2EBC74261EB57310CFB0EF714
:1030A000B0EBC70072EB57720CFB08F734BFA2EB12
:1030B000C702B2EBC70261EB57714FEA816141EA87
:1030C00092114FEA826242EA90124FEA806004EB6A
:1030D000CC04039F4FEAD13706FB07FC4FEA1C4C98
:1030E0000CFB0BF7D21B03FB0CF761EB07010CFB8E
:1030F0000EF7B0EB074072EB17420CFB08F734BF3A
:10310000A2EB0742B2EB074261EB17414FEA8C5545
:1031100004EB9C244FEA910706FB07FC4FEA1C4C8A
:103120000CFB0BF7B0EBC74072EB573203FB0CF70D
:1031300034BFA2EBC742B2EBC74261EB57310CFB85
:103140000EF7B0EBC70072EB57720CFB08F734BFF9
:10315000A2EBC702B2EBC70261EB57714FEA816184
:1031600041EA92114FEA826242EA90124FEA80608D
:1031700015EB4C2544F100044FEAD13706FB07FC60
:103180004FEA1C4C0CFB0BF7D21B03FB0CF761EB5B
:1031900007010CFB0EF7B0EB074072EB17420CFB7C
:1031A00008F734BFA2EB0742B2EB074261EB1741CD
:1031B0004FEA813141EA92414FEA823242EA90423B
:1031C0004FEA80304FEA0C7615EB1C1544F10004F1
:1031D00048EA03434EEA0B484FF0000EB2EB080CEE
:1031E00071EB030724BF624639464EEB0E0E4FF0DB
:1031F000000B0018524149414BEB0B0BB2EB080C92
:1032000071EB03077BF1000B24BF624639464EEB9E
:103210000E0E4FF0000B0018524149414BEB0B0BC7
:10322000B2EB080C71EB03077BF1000B24BF624685
:1032300039464EEB0E0E51EA020718BF46F0010662
:1032400016EB0E7655F1000254F1000103D5BDE8EE
:103250008901BDE80088BDE88901BDE80048B619CC
:10326000524141EB0101A3F10103704780807F7E51
:103270007D7C7B7A797877767675747372717170EC
:103280006F6E6E6D6C6C6B6A6A696868676666659E
:103290006464636362616160605F5F5E5E5D5D5C2C
:1032A0005C5B5B5A5A59595858575756565555559D
:1032B0005454535352525251515050504F4F4F4EFD
:1032C0004E4D4D4D4C4C4C4B4B4B4A4A4A4949494B
:1032D000484848474747474646464545454444448D
:1032E0004443434343424242424141419C46002BB6
:1032F00030D477002BD04FEA37071CB503B44FF01A
:1033000010004FF01001BAF1000F06D0BCF1000F11
:10331000DCBF40F0080040F008014FF000000FBC97
:10332000BDE810400BF1010BBBF1010F08BF5FEAD4
:10333000170722BF12F1010211F101014FF0004104
:1033400043F1000300F0004043EA00007047F9D366
:103350005708D0E746EA06464FEA164613F1400FF3
:103360001FDD13F1200FDFBF16430A460021203373
:103370005B42BED0C3F1200746EA06464FEA164636
:1033800002FA07F746EA070622FA03F2C3F120071A
:1033900001FA07F742EA070221FA03F14FF00003AE
:1033A000A7E746EA020646EA06464FEA164646EA16
:1033B0000106BCBF46EA0646360C4FF000034FF04C
:1033C00000024FF0000194E72DE9804C70B49A465A
:1033D000934691E8380007C831EA400C48BF34EA08
:1033E000430C03D5FFF7E6FDFFF780FFF0BCBDE817
:1033F000008C2DE9804C70B49A46934691E83800D1
:1034000007C810F0804F08BF13F0804F03D100F0C1
:1034100005F8FFF76BFFF0BCBDE8008C20F07F479C
:1034200023F07F4C80EA030000F0004007EB0C0320
:10343000A3F57C53A3F1FE0392F0000F00F0B380DC
:1034400095F0000F00F077802DE901494FEA114017
:1034500021EA00484FEA144624EA064700FB06FC2E
:1034600008FB06F607FB08F818EB06484CEB164C71
:1034700000FB07F718EB07484CEB17404FEA124BDD
:1034800022EA0B4E4FEA154625EA06470BFB06FCDF
:103490000EFB06F607FB0EFE1EEB064E4CEB164C23
:1034A0000BFB07F71EEB074E4CEB174B18EB0B080B
:1034B00040F1000018EB0E0B58EB000840F1000043
:1034C0008F1A4FF000014FF000063CBFC943661B46
:1034D00014BFB5EB040C00213CBFC943F61B4FEAF7
:1034E000174427EA04454FEA1C472CEA074C04FB23
:1034F000076205FB07F70CFB05F616EB074642EBE8
:10350000174204FB0CFC16EB0C4642EB1C421BEB77
:10351000060658EB020241414EEA8E0E46EA9E062E
:1035200001D5BDE80189B619524141EB0101A3F172
:103530000103BDE801894FEA144524EA05464FEA34
:10354000114721EA074C05FB07F406FB07F70CFBC4
:1035500006F111EB074144EB174405FB0CFC11EBA2
:103560000C4144EB1C444FEA124722EA074C05FB8E
:1035700007F206FB07F70CFB06F616EB074642EBD5
:10358000174205FB0CFC16EB0C4642EB1C456A1877
:1035900054F1000148BF7047B619524141EB010197
:1035A000A3F10103704795F0000F37D04FEA1142A5
:1035B00021EA02464FEA144724EA074C02FB07F1CE
:1035C00006FB07F70CFB06F414EB074441EB17412D
:1035D00002FB0CFC14EB0C4441EB1C414FEA154779
:1035E00025EA074C02FB07F506FB07F70CFB06F67E
:1035F00016EB074645EB174502FB0CFC16EB0C4699
:1036000045EB1C42121951F1000148BF7047B61931
:10361000524141EB0101A3F1010370474FEA144508
:1036200024EA05464FEA114721EA074C05FB07F15A
:1036300006FB07F70CFB06F212EB074241EB1741C2
:1036400005FB0CFC12EB0C4251EB1C414FF0000649
:1036500048BF7047921841EB0101A3F10103704785
:10366000490050EAC12018BF04204A0D18BF40F09D
:10367000010040F2FF72B2EB515F08BF40F0020060
:10368000012808BF0520704730380A2801D20120E0
:10369000704700207047000010B500290AD0087854
:1036A000002807D005487844FDF702FA002801D029
:1036B000002010BD0248784410BD00006A090000D7
:1036C0006209000010B591EA030F48BF83F0004380
:1036D00000F14683841A71EB030C05D2121943EBF7
:1036E0000C03001B61EB0C014FEA1154A4EB135CBB
:1036F000DFF81CE11EEA430F18BF9EEA445F00F0AA
:10370000748021EA045123EA0E0343F48013DCF1B0
:10371000200E32D322FA0CFE10EB0E0023FA0CFE20
:1037200041EB0E01CCF1200E03FA0EFE10EB0E0061
:10373000CCF1200E51F10001B1F5801F32D201EB26
:10374000045112FA0EF2BDE8104058BF7047401CF9
:1037500038BF5FEA420218BF7047002814BF20F04C
:10376000010041F100014FEA410313F5001F38BF8A
:103770007047A1F1C04100F0E5BA012A43EB030212
:10378000ACF1200CDCF11F0E32BF4FF0000E23FA1B
:103790000CF310EB030041EB0451B4EB115FD0D0FC
:1037A000A1EB045101F58011490801EB04515FEAD6
:1037B00030000ED350F1000038BF12FA0EFE08D1CF
:1037C000BDE81040C9E7401C38BF5FEA4202CAD1D9
:1037D000C3E7BDE810404FEA410313F5001F38BFAF
:1037E0007047A1F1C04100F0ADBA9EEA445F08D035
:1037F00011EA5E0FBDE8104004BF01F00041002057
:103800007047BDE8104070B500F04EFA64FBBE3E54
:103810000000E0FF2DE9C04130B4DFF8A4C23CEA6B
:10382000111418BF3CEA131400F0ED801CEA1114C7
:1038300081EA030544EAD57418BF1CEA131500F0A9
:10384000C880A4EB050404F17F7404F500344FF044
:10385000004545EAC12145EAC32341EA505143EA04
:1038600052534FEAC0204FEAC222994208BF904209
:1038700000F09D804FEA13650FF24416765D4FEA23
:10388000134506FB05F7C7F1807706FB07F74FEAFC
:10389000D737A7FB03687642A7FB06CEC8F580386A
:1038A00038BFA8F1010807FB08E6A6FB028C4FF021
:1038B000000EE6FB03CEDCF1000CCEF1004E38BF6B
:1038C000AEF1010EA6FB0C584FF00007E6FB0E8789
:1038D000A1FB08C6A0FB07CE16EB0E064FF00005B5
:1038E00045F10005E1FB076515F1E04E7EBFA4F54B
:1038F00080345FEA46066D4116F1800745F1000508
:103900004FEA172747EA05674FEA15254FEA06668B
:10391000A6F1DE46B6F1805F20D9384605EBC471CA
:1039200024F0010C01EB0C11BCF1FE6F02D8F0BCCD
:10393000BDE8008124425CBF01F5801E9EEAC47F81
:1039400002D4F0BCBDE80081244200F13980A1F12D
:10395000C041F0BCBDE8004100F0F4B94FEAD0200E
:1039600040EA41504FEAD1214FEAD22242EA435283
:103970004FEAD323A7FB028607FB036605FB02661B
:103980001EEA0E0F58BFA6EB0056B6EB00564FEAE4
:10399000520E4EEAC37E18EB0E0E56EB530EBCD5FC
:1039A00018EB02085E417F1C55F10005B5E74FF4A6
:1039B00080154FF000074FF000064FF00008ACE70D
:1039C00001F1C04101F000414FF00000F0BCBDE842
:1039D00000810CEA131511EA0C1F00D00CE013EA69
:1039E0000C1F00F026804FF0000081EA030101F077
:1039F0000041F0BCBDE80081F0BCBDE8004181EAB7
:103A0000030100F09FB9F0BCBDE8004170B500F0C3
:103A10004BF900BF097EFC3E00F007B84FF00000F4
:103A200081EA030101F00041704781EA030100F0DF
:103A300089B9F0BCBDE8004122494FF00000704751
:103A4000FFFDFBF9F7F5F4F2F0EEEDEBE9E8E6E463
:103A5000E3E1E0DEDDDBDAD8D7D5D4D3D1D0CFCDEA
:103A6000CCCBCAC8C7C6C5C4C2C1C0BFBEBDBCBB23
:103A7000BAB9B8B7B6B5B4B3B2B1B0AFAEADACAB1E
:103A8000AAA9A8A8A7A6A5A4A3A3A2A1A09F9F9EF8
:103A90009D9C9C9B9A9999989797969595949393AA
:103AA000929191908F8F8E8E8D8C8C8B8B8A898941
:103AB00088888787868585848483838282818180C4
:103AC0000000FF070000F87F4FEA41034FEA53531D
:103AD000A3F58063D3F11E03C8BFD3F1210C0CDD25
:103AE0004FF0004242EAC12242EA505232FA03FC4D
:103AF0008CEAE17CACEBE1707047102BC4BF002076
:103B0000704703F5787CBCF1FF3F04D06FF00042B2
:103B100082EA2100704770B500F0C6F8499224800F
:103B200000207047F2E710F0004248BF4042B0FA70
:103B300080F310FA03F10AD0C3F11D0303F580638B
:103B400002EB03524FEA415002EBD12170474FF094
:103B50000000704770B5DFF848C11CEA111E1EBF97
:103B60001CEA13159EEA0C0F95EA0C0F00F06F800B
:103B700081EA03044EEAD47EAE4421EA4C1123EAE2
:103B80004C1341F4801143F48013AEF17F7EA1FB0E
:103B9000024CA0FB0365361955EB0C05A1FB034C49
:103BA0004CF10003A0FB021C16EB0C06654153F11F
:103BB0000003094218BF46F0010613F4007F0BD141
:103BC0004FEA03314FEA053041EA155140EA1650F9
:103BD00034036FF003020AE04FEAC3214FEAC52025
:103BE00041EA555140EA5650F4026FF0020202EBEE
:103BF0002E4201EB025585EACE710AD05FEA440CF1
:103C000018BF24F0004450F1000041F1000120EA07
:103C1000D47040F2FE7C624500D270BDA84214BF51
:103C20004FF080444FF04044002E08BF0024BEF106
:103C3000806FA8BFA1F1C041BDE8704080F28280D2
:103C400001F1C04101F000414FF0000070470CEA63
:103C500013159EEA0C0F18BF95EA0C0F06D081EAE7
:103C6000030E4FF000000EF0004170BD00F01CF894
:103C70008900013E00F007B800F009B84FEA430C94
:103C80005FEA5C5C08D081EA030100F05BB84FEAB0
:103C9000410C5FEA5C5CF6D102494FF000007047CE
:103CA0000000FF070000F87F0EF1020E2EF0030E59
:103CB0005EF8046B364205D4012A43EB030515F583
:103CC000001F12D8012841EB010C1CF5001F0CD875
:103CD0000ED14FEAD17C0CEB4C0C0CF1020C15F51B
:103CE000001F08BF4CEBD37C04E04FF0080C01E050
:103CF0004FEAD37C0CEB4C0526FA05F606F00706D6
:103D0000B6F1040C06D20EEB860CBDE870404CF008
:103D1000010C6047DFE80CF0090B02024FF0004194
:103D2000A1F500214FF0000070BD19461046012892
:103D300051EB010418BFD4F5001484BF002001F03A
:103D4000004170BD0808A0F500114FEA310170472D
:103D500010B591EA030F48BF83F000433FF5BAACBA
:103D6000841A71EB030C07D28CF0004C121943EB50
:103D70000C03001B61EB0C014FEA1154A4EB135C24
:103D8000DFF8A4E11EEA430F18BF9EEA445F00F08B
:103D9000B48021EA045123EA6E035242C3EB6E035E
:103DA00038BF5B1EDCF1200E25D322FA0CFE10EB8F
:103DB0000E0043FA0CFE41EB0E01CCF1200E03FA8B
:103DC0000EFE10EB0E00CCF1200E51F1000129D4B3
:103DD00001EB045112FA0EF2BDE8104058BF7047D3
:103DE000401C1CBFB2F1004F704700280CBF491C9B
:103DF00020F00100704712EB020E43EB030218BFE4
:103E00004FF0010E4EEA4202ACF1200CDCF11E0E26
:103E100056D943FA0CFE10EB0E00CCF11E0E51F1F8
:103E2000FF31D5D50EF1010E12FA0EFE404141EBE5
:103E3000010101EB445C5FEA5C5C10D901EB0451C9
:103E400010EBDE7038BFBEF1004FBDE8104018BF68
:103E5000704700280CBF491C20F00100704734D285
:103E60004FEAD42C24F4006411F500111BD0B1FAF0
:103E700081F20B3AA41AA41ED2F12003914030FA29
:103E800003F31943904001EBCC7101EB0451002C7A
:103E9000BDE81040A8BF704701F1C04101F00041EA
:103EA0004FF000007047B0FA80F310FA03F102D12E
:103EB000BDE810407047E41A173C4805C90AE2E71C
:103EC00001EB0451BDE81040704749104FEA300043
:103ED00001EB0451BDE8104002E04FF000017047D3
:103EE0004A0008BF0042F8D0B2F5001F28BF704753
:103EF00001F000414FF0000070479EEA445F07D098
:103F000011EA5E0FBDE8104004BF00210020704799
:103F1000BDE8104070B5FFF7C7FE00BF40DFF63EBA
:103F2000104683F0004170470000E0FFFCF73DBB06
:103F300002400000000000A000000000054000005A
:103F4000000000C8000000000C4000000000409C81
:103F500000000000194000000020BCBE000000006E
:103F600034400000BFC91B8E00000004B5400000B3
:103F7000504BCFD06607E2CF010000006C4100003B
:103F80003E8251AADFEEA73401000000D9420000B2
:103F9000DCB5A0E23A301F97FFFFFFFFB4450000F9
:103FA000FD25A0C8E9A3C14FFFFFFFFFFF3F0000B1
:103FB0000000008000000000FF3F000000000080C3
:103FC00000000000000000000000000001020304E7
:103FD00006070809000000000102030401020203B1
:103FE0000405060708090A0B0C0D0E0F101000003F
:103FF00030400008000000201000000028010008E8
:10400000404000081000002048070000440100085C
:104010001C00000043000000F8FFFFFF0C00000040
:104020000E0000000F0000002E0000000000000045
:10403000010000001000000000127A0000000000E3
:04000005080000ED02
:00000001FF
